:100000000C94FF0D0C942A0E0C942A0E0C942A0EBC
:100010000C942A0E0C942A0E0C942A0E0C942A0E80
:100020000C942A0E0C942A0E0C94DEE20C94AAE096
:100030000C942A0E0C942A0E0C942A0E0C942A0E60
:100040000C942A0E0C943C8E0C942A0E0C942A0EBE
:100050000C942A0E0C942A0E0C94DA960C946DDFF4
:100060000C942A0E0C942A0E0C942A0E0C942A0E30
:100070000C942A0E0C942A0E0C942A0E0C942A0E20
:100080000C942A0E0C942A0E0C942A0E0C942A0E10
:100090000C947DD90C942A0E084AD73B3BCE016EB6
:1000A00084BCBFFDC12F3D6C74319ABD56833DDACF
:1000B0003D00C77F11BED9E4BB4C3E916BAAAABEDE
:1000C000000000803F05A84CCDB2D44EB93836A907
:1000D000020C50B9918688083CA6AAAA2ABE000044
:1000E00000803F4D383420582059205A2045006563
:1000F00063686F3A0043616E6E6F7420656E74655D
:1001000072207375626469723A20004D3234004D7A
:100110003233202573006175746F25692E670045A1
:1001200072726F723A006572726F722077726974C0
:10013000696E6720746F2066696C65004E6F74206D
:100140005344207072696E74696E67002F005344C7
:10015000207072696E74696E672062797465200020
:100160002E0044656C6574696F6E206661696C650C
:10017000642C2046696C653A200046696C652064F1
:10018000656C657465643A002E006F70656E20665C
:1001900061696C65642C2046696C653A2000577271
:1001A0006974696E6720746F2066696C653A200017
:1001B0002E006F70656E206661696C65642C204648
:1001C000696C653A20002E006F70656E206661696B
:1001D0006C65642C2046696C653A200046696C6544
:1001E0002073656C6563746564002053697A653AB1
:1001F000200046696C65206F70656E65643A20006A
:100200002E006F70656E206661696C65642C2046F7
:10021000696C653A20004E6F7720667265736820BE
:1002200066696C653A20004E6F7720646F696E676F
:100230002066696C653A20002220706F73002220CE
:10024000706172656E743A2200535542524F555494
:10025000494E452043414C4C207461726765743AA5
:100260002200747279696E6720746F2063616C6C10
:10027000207375622D67636F64652066696C6573B2
:10028000207769746820746F6F206D616E79206CBF
:100290006576656C732E204D4158206C6576656CD3
:1002A0002069733A0053442063617264206F6B00CD
:1002B0006F70656E526F6F74206661696C65640063
:1002C000766F6C756D652E696E6974206661696CF8
:1002D000656400534420696E6974206661696C002E
:1002E0006563686F3A0048617264636F6465642097
:1002F00044656661756C742053657474696E6773C8
:10030000204C6F616465640053746F726564207380
:10031000657474696E677320726574726965766559
:100320006400205A0020590020204D3231322058DC
:10033000004265642070726F6265206F6666736547
:100340007420286D6D293A00205A00205900202081
:100350004D3231312058004D617820706F736974CF
:10036000696F6E20286D6D293A00205A00205900CF
:1003700020204D3231302058004D696E20706F734F
:100380006974696F6E20286D6D293A002044002041
:1003900049002020204D3330312050005049442066
:1003A00073657474696E67733A00205A00205900AF
:1003B00020204D323036205800486F6D65206F6622
:1003C0006673657420286D6D293A00204500205A17
:1003D0000020580020420020540020204D323035AB
:1003E000205300416476616E6365642076617269B2
:1003F00061626C65733A20533D4D696E2066656598
:10040000647261746520286D6D2F73292C20543D12
:100410004D696E2074726176656C206665656472E4
:1004200061746520286D6D2F73292C20423D6D6904
:100430006E696D756D207365676D656E7420746986
:100440006D6520286D73292C20583D6D6178696D8C
:10045000756D205859206A65726B20286D6D2F7359
:10046000292C20205A3D6D6178696D756D205A20C8
:100470006A65726B20286D6D2F73292C2020453DF5
:100480006D6178696D756D2045206A65726B2028F5
:100490006D6D2F73290020540020204D3230342000
:1004A0005300416363656C65726174696F6E3A20D5
:1004B000533D616363656C65726174696F6E2C2076
:1004C000543D7265747261637420616363656C6529
:1004D000726174696F6E00204500205A0020590037
:1004E00020204D3230312058004D6178696D756D96
:1004F00020416363656C65726174696F6E20286D5D
:100500006D2F7332293A00204500205A00205900EF
:1005100020204D3230332058004D6178696D756D63
:100520002066656564726174657320286D6D2F7334
:10053000293A00204500205A0020590020204D393A
:100540003220580053746570732070657220756E88
:1005500069743A0053657474696E67732053746FDD
:10056000726564006563686F3A004572726F723A33
:100570000053544F505045442E20005072696E7401
:1005800065722073746F7070656420647565207483
:100590006F206572726F72732E20466978207468BE
:1005A00065206572726F7220616E642075736520BC
:1005B0004D39393920746F20726573746172742EED
:1005C000202854656D706572617475726520697359
:1005D0002072657365742E205365742069742061E0
:1005E000667465722072657374617274696E6729CE
:1005F000004B494C4C45442E20005072696E746586
:10060000722068616C7465642E206B696C6C28299B
:100610002063616C6C656421006F6B0052657365CB
:100620006E643A20002200556E6B6E6F776E206309
:100630006F6D6D616E643A2022004368616E67657C
:100640002066696C616D656E74007A5F6D696E3AE3
:100650002000795F6D61783A2000785F6D696E3AAD
:1006600020005A3A00593A0020436F756E742058A2
:100670003A2000453A005A3A00593A00583A0020C8
:1006800053455249414C5F4E554D4245523A200028
:100690002045585452554445525F434F554E543AA5
:1006A0002000204D414348494E455F545950453A3A
:1006B00020002050524F544F434F4C5F56455253E9
:1006C000494F4E3A2000204649524D574152455F0E
:1006D00055524C3A20004649524D574152455F4EC3
:1006E000414D453A204D61726C696E205631005083
:1006F00072696E7472626F742053696D706C6520DC
:100700004F66662E0042656420646F6E652E002081
:10071000423A0020453A00543A0042656420486558
:100720006174696E672E0048656174696E67206444
:100730006F6E652E0020573A0020453A00543A006B
:1007400048656174696E672E2E2E002042403A0083
:1007500020403A00202F003A00205400202F002093
:10076000423A00202F006F6B20543A002569206D1B
:10077000696E2C2025692073656300456E642066D0
:10078000696C65206C69737400426567696E2066E8
:10079000696C65206C697374004E6F206D6F7665AF
:1007A0002E00526573756D696E67207072696E7484
:1007B000005761697420666F7220757365722E2E02
:1007C0002E000A00205A3A200020593A20004265A3
:1007D0006420506F736974696F6E20583A20000A64
:1007E00000207A3A200020793A200042656420787F
:1007F0003A20000A00207A3A200020793A2000426C
:10080000656420783A20000A00207A3A2000207996
:100810003A200042656420783A20005A50726F6294
:1008200065204F75747369646520426564005A5091
:10083000726F6265204F75747369646520426564E8
:1008400000486F6D6520582F59206265666F72658C
:10085000205A00486F6D6520582F59206265666FD9
:100860007265205A00536C6565702E2E2E00FF01B4
:10087000FF0000A0400000A0400000803F2569204C
:10088000686F757273202569206D696E7574657364
:1008900000446F6E65207072696E74696E672066C1
:1008A000696C650053544F505045442E20005072DF
:1008B000696E7465722073746F70706564206475FE
:1008C0006520746F206572726F72732E204669788E
:1008D00020746865206572726F7220616E64207585
:1008E0007365204D39393920746F207265737461D6
:1008F00072742E202854656D70657261747572650E
:100900002069732072657365742E205365742069A5
:1009100074206166746572207265737461727469A3
:100920006E6729006F6B004E6F204C696E65204E1C
:10093000756D626572207769746820636865636BA2
:1009400073756D2C204C617374204C696E653A2070
:10095000004E6F20436865636B73756D2077697413
:1009600068206C696E65206E756D6265722C204C16
:10097000617374204C696E653A2000636865636B2F
:1009800073756D206D69736D617463682C204C61A3
:100990007374204C696E653A20004C696E65204E78
:1009A000756D626572206973206E6F74204C61737F
:1009B00074204C696E65204E756D6265722B312C0A
:1009C000204C617374204C696E653A20004D3131C2
:1009D0003000446F6E6520736176696E67206669CA
:1009E0006C652E006F6B004D3239002020506C6119
:1009F0006E6E657242756666657242797465733AA9
:100A000020002046726565204D656D6F72793A2031
:100A1000004D6172203135203230313600436F6D28
:100A200070696C65643A20005072696E7472626F0E
:100A30007400207C20417574686F723A20004D610B
:100A40007220313520323031362031353A31393A61
:100A5000303500204C617374205570646174656496
:100A60003A2000312E302E30004D61726C696E20BC
:100A70000020536F667477617265205265736574E8
:100A800000205761746368646F67205265736574F2
:100A9000002042726F776E206F7574205265736507
:100AA00074002045787465726E616C2052657365C0
:100AB0007400506F776572557000737461727400C2
:100AC0002200656E717565696E67202200220065DF
:100AD0006E717565696E672022006563686F3A0004
:100AE00020746F6F206C6F6E6720657874727573F9
:100AF000696F6E2070726576656E74656400206340
:100B00006F6C6420657874727573696F6E20707293
:100B10006576656E746564007C3C3E5E2B3D3F2FC0
:100B20005B5D3B2C2A225C0045313A200045303A7F
:100B300020005A3A2000593A2000583A20004D53DC
:100B4000312C4D53322050696E730A006563686F13
:100B50003A0028002920453A00280029205A3A0066
:100B600028002920593A00280020583A005374657B
:100B7000707065722063757272656E742076616C38
:100B8000756573205B2528726177295D3A0024F42E
:100B900004D9201BC40C5C0E9804C4095F026507CD
:100BA0007101F405F900FB04B30048048700C10398
:100BB00069005803550003034500BE023A00840251
:100BC000310053022A002902250004022000E4011A
:100BD0001C00C8011900AF0117009801140084011E
:100BE0001300710110006101100051010E0043015A
:100BF0000D0036010B002B010B0020010B0015012D
:100C000009000C01090003010800FB000800F300C3
:100C10000800EB000700E4000600DE000600D80034
:100C20000600D2000600CC000500C7000500C20087
:100C30000500BD000400B9000400B5000400B100C7
:100C40000400AD000400A9000400A5000300A200F8
:100C500003009F0004009B00030098000300950020
:100C6000020093000300900003008D0002008B003F
:100C70000300880002008600020084000300810057
:100C800002007F0002007D0002007B00020079006C
:100C9000020077000100760002007400020072007A
:100CA0000100710002006F0002006D0001006C0085
:100CB00002006A000100690002006700010066008E
:100CC0000100650001006400020062000100610093
:100CD0000100600001005F0002005D0001005C0097
:100CE00001005B0001005A0001005900010058009A
:100CF000010057000100560001005500010054009A
:100D00000100530000005300010052000100510097
:100D10000100500001004F0001004E0000004E0095
:100D200001004D0001004C0001004B0000004B0091
:100D300001004A000100490001004800000048008D
:100D40000100470001004600000046000100450088
:100D50000000450001004400010043000000430082
:100D6000010042000000420001004100000041007B
:100D70000100400001003F0000003F0001003E0074
:100D800000003E0001003D0000003D0001003C006D
:100D900000003C0000003C0001003B0000003B0064
:100DA00001003A0000003A0001003900000039005B
:100DB0000100380000003800000038000100370052
:100DC0000000370001003600000036000000360049
:100DD000010035000000350000003500010034003E
:100DE0000000340000003400010033000000330034
:100DF0000000330001003200000032000000320029
:100E0000010031000000310000003100010030001D
:100E1000000030000000300001002F0000002F0013
:100E200000002F0000002F0001002E0000002E0007
:100E300000002E0001002D0000002D0000002D00FC
:100E400000002D0001002C0000002C0000002C00F0
:100E500000002C0001002B0000002B0000002B00E4
:100E600000002B0001002A0000002A0000002A00D8
:100E700000002A00010029000000290000002900CC
:100E800000002900000029000100280000002800BF
:100E900000002800000028000000280001002700B2
:100EA00000002700000027000000270000002700A6
:100EB0000100260000002600000026000000260099
:100EC000000026000100250000002500000025008C
:100ED000000025000000250000002500010024007E
:100EE0000000240000002400000024000000240072
:100EF0000100230000002300000023000000230065
:100F00000000230000002300000023000100220055
:100F10000000220000002200000022000000220049
:100F2000000022000100210000002100000021003B
:100F3000000021000000210000002100000021002D
:100F40000100200000002000000020000000200020
:100F50000000200000002000000020000000200011
:100F600001001F0000001F0000001F0000001F0004
:100F700000001F0000001F0000001F0001001E00F5
:100F800000001E0000001E0000001E00000024F4EF
:100F9000D43050C38E20C2A24017828B7011127AB7
:100FA000910D816CD90AA861E108C75866076151A3
:100FB00043061E4B5D05C145A7041A411104093DB6
:100FC0009803713931034036DB0265339102D43026
:100FD0005402802E1D02632CEE01752AC501B02833
:100FE000A001102781018F2564012B244B01E022F1
:100FF0003401AC211F018D200D01801FFC00841ED7
:10100000ED00971DDF00B81CD200E61BC600201BB8
:10101000BC00641AB200B219A8000A19A0006A182C
:101020009900D117910040178B00B5168400311636
:101030007E00B31579003A157300C7146F00581479
:101040006A00EE1366008813630025135E00C71262
:101050005B006C12570015125400C1115100701141
:101060004F0021114B00D61049008D10470046104B
:10107000440002104200C00F4000800F3E00420FAB
:101080003C00060F3B00CB0E3800930E37005C0E81
:101090003500270E3400F30D3200C10D3100900DE4
:1010A0003000600D2E00320D2D00050D2C00D90CE6
:1010B0002B00AE0C2900850C29005C0C2700350C98
:1010C00027000E0C2600E80B2400C40B2400A00B04
:1010D00023007D0B23005A0B2100390B2100180B34
:1010E0002000F80A1F00D90A1E00BB0A1E009D0A34
:1010F0001D00800A1D00630A1C00470A1B002C0A01
:101100001B00110A1A00F7091A00DD091900C409A9
:101110001900AB091900920917007B09180063092F
:1011200017004C09160036091600200916000A0996
:101130001500F5081500E0081400CC081400B808E4
:101140001400A4081400900813007D0812006B0816
:101150001300580812004608120034081100230832
:1011600011001208110001081100F0071000E0073B
:101170001000D0071000C0071000B0070F00A10733
:10118000100091070E0083070F0074070F0065071A
:101190000E0057070E0049070E003B070D002E07F3
:1011A0000E0020070D0013070D0006070D00F906BD
:1011B0000C00ED060D00E0060C00D4060C00C8067D
:1011C0000C00BC060C00B0060C00A4060B0099062F
:1011D0000C008D060B0082060B0077060B006C06D8
:1011E0000B0061060A0057060B004C060A00420677
:1011F0000A0038060A002E060A0024060A001A060B
:101200000A001006090007060A00FD050900F4059A
:101210000900EB050900E2050900D9050900D00520
:101220000900C7050900BE050900B5050800AD05A0
:101230000800A50509009C050800940508008C0518
:101240000800840508007C050800740508006C058A
:101250000700650508005D050700560508004E05F6
:10126000070047050700400508003805070031055D
:1012700007002A050700230507001C0506001605C0
:1012800007000F0507000805060002050700FB041C
:101290000600F5040700EE040600E8040600E20478
:1012A0000700DB040600D5040600CF040600C904CD
:1012B0000600C3040600BD040600B7040600B1041E
:1012C0000500AC040600A6040600A00405009B046B
:1012D000060095040500900406008A0405008504B4
:1012E0000500800406007A040500750405007004FA
:1012F00005006B04050066040500610405005C043C
:10130000050057040500520405004D04050048047B
:101310000500430405003E0404003A0405003504BA
:101320000500300404002C040500270404002304F5
:1013300005001E0404001A0404001604050011042C
:1013400004000D0404000904050004040400000462
:101350000400FC030400F8030400F4030400F00399
:101360000400EC030400E8030400E4030400E003C9
:101370000400DC030400D8030400D4030400D003F9
:101380000400CC030400C8030300C5030300656E1A
:101390006473746F7073206869743A205A00205A1D
:1013A0003A00656E6473746F7073206869743A20D4
:1013B000590020593A00656E6473746F7073206829
:1013C00069743A20580020583A00656E6473746F4F
:1013D0007073206869743A20004572726F723A0027
:1013E0004572723A204D415854454D502042454473
:1013F0000054656D70657261747572652068656111
:1014000074656420626564207377697463686564D9
:10141000206F66662E204D415854454D5020747201
:1014200069676765726564202121004572723A2000
:101430004D494E54454D50003A20457874727564BC
:101440006572207377697463686564206F66662EC1
:10145000204D494E54454D5020747269676765723E
:1014600065642021004572723A204D415854454D23
:1014700050003A20457874727564657220737769FC
:101480007463686564206F66662E204D415854452C
:101490004D50207472696767657265642021002071
:1014A0002D20496E76616C6964206578747275646C
:1014B0006572206E756D6265722021001000AD03AB
:1014C00030016A0150022B0170030A019004F500FB
:1014D000B005E500D006D800F007CE001009C50021
:1014E000300ABE00500BB700700CB100900DAB007D
:1014F000B00EA600D00FA200F0109D0010129900AF
:10150000301395005014920070158E0090168B00C9
:10151000B0178700D0188400F0198100101B7E00DE
:10152000301C7B00501D7900701E7600901F7300E8
:10153000B0207000D0216E00F0226B0010246900F2
:1015400030256600502663007027610090285E00F9
:10155000B0295C00D02A5900F02B5600102D540001
:10156000302E5100502F4E0070304B00903148000B
:10157000B0324500D0334200F0343E0010363B001C
:10158000303737005038330070392E00903A290038
:10159000B03B2300D03C1B00F03D1100103F010088
:1015A000F03F0000504944204175746F74756E65BA
:1015B0002066696E697368656421205075742074B3
:1015C0006865204B702C204B6920616E64204B6451
:1015D00020636F6E7374616E747320696E746F2014
:1015E000436F6E66696775726174696F6E2E68000D
:1015F000504944204175746F74756E652066616949
:101600006C6564212074696D656F75740020403AC3
:10161000006F6B20543A006F6B20423A00504944EF
:10162000204175746F74756E65206661696C6564C0
:10163000212054656D706572617475726520746FD8
:101640006F206869676800204B643A2000204B696E
:101650003A2000204B703A200020436C617369638C
:101660002050494420002054753A2000204B753A00
:101670002000206D61783A2000206D696E3A2000CC
:1016800020643A200020626961733A200070012CC6
:101690000190012701B0012201C0011D01F00118D4
:1016A000011002130130020E0160020901900204D0
:1016B00001C002FF000003FA004003F5008003F0C0
:1016C00000D003EB002004E6007004E100E004DC3D
:1016D000004005D700C005D2004006CD00D006C8A6
:1016E000008007C3003008BE00F008B900C009B48C
:1016F00000B00AAF00B00BAA00D00CA500000EA0ED
:1017000000500F9B00C01096005012910000148CE6
:1017100000C0158700B0178200B0197D00D01B787B
:1017200000001E730040206E0090226900F02464C7
:101730000040275F0090295A00E02B5500102E50E2
:101740000020304B0010324600E033410090353C21
:10175000001037370070383200A0392D00B03A2819
:1017600000A03B2300603C1E00103D1900903D147A
:1017700000103E0F00703E0A00C03E0500003F0012
:10178000002D2D3A2D2D002D2D2D005344002059D4
:10179000000120000120004D323100496E69742E95
:1017A0002053442D43617264004E6F204361726484
:1017B000004D3231004368616E67652053442D430C
:1017C000617264005072696E742066726F6D20538E
:1017D000440053746F70205072696E7400526573C8
:1017E000756D65205072696E740050617573652067
:1017F0005072696E7400436F6E74726F6C00507239
:1018000065706172650054756E6500496E666F2083
:1018100073637265656E00052E2E00045265667254
:10182000657368004D61696E004D3234004D32338E
:10183000202573004D383420582059205A20450067
:10184000526573746F7265204661696C7361666579
:10185000004C6F6164206D656D6F72790053746F19
:101860007265206D656D6F72790054656D7065727B
:101870006174757265004D61696E005049442D4375
:10188000005049442D43005049442D4400504944E0
:101890002D44005049442D49005049442D490050E1
:1018A00049442D50005049442D50002002204661EB
:1018B00063740020022046616374002002204D61A1
:1018C00078002002204D6178002002204D696E00D2
:1018D0002002204D696E004F6666004F6E20004F5B
:1018E0006666004F6E20004175746F74656D700000
:1018F00046616E2073706565640046616E2073708A
:101900006565640042656400426564004E6F7A7AE2
:101910006C6533004E6F7A7A6C6533004E6F7A7A5D
:101920006C6532004E6F7A7A6C6532004E6F7A7A4F
:101930006C65004E6F7A7A6C6500436F6E74726FDF
:101940006C004D6F7665204178697300436F6F6C52
:10195000646F776E00507265686561742041425310
:10196000005072656865617420504C410047323800
:10197000004175746F20486F6D65004D3834004428
:10198000697361626C652053746570706572730071
:101990004D61696E004D6F766520302E316D6D00A2
:1019A0004D6F766520316D6D004D6F76652031305D
:1019B0006D6D005072657061726500457874727566
:1019C000646572004D6F7665205A004D6F76652014
:1019D00059004D6F76652058004D6F76652041782F
:1019E0006973004578747275646572005A00590015
:1019F00058004D363030004368616E676520666977
:101A00006C616D656E7400466C6F7700466C6F7725
:101A10000046616E2073706565640046616E2073D8
:101A2000706565640042656400426564004E6F7ACB
:101A30007A6C6533004E6F7A7A6C6533004E6F7A3C
:101A40007A6C6532004E6F7A7A6C6532004E6F7A2E
:101A50007A6C65004E6F7A7A6C65005370656564C8
:101A6000005370656564004D61696E0001290229AB
:101A7000042908291029202940298029012C022C19
:101A80000126022604260826102620264026802627
:101A9000402C802C0123022304230823102320231D
:101AA0004023802301200220042008201020202031
:101AB00040208020102C202C012F022F042F082FD3
:101AC000102F202F402F802F7EFE7EFD7EFB7EF785
:101AD0007EEF7EDF7EBF7E7F000100000C1B1200C8
:101AE0000200001E1B4300030000611B04010309E8
:101AF00004651B14020309047B1B22030309049FD2
:101B00001B160001C102018036018136120100025C
:101B100002000020742910060001010203010902DD
:101B20004300020100C0320904000001020201006A
:101B300005240010010524010001042402060524E7
:101B40000600010705820308004009040100020A9B
:101B50000000000705030240000007058402400062
:101B6000000403090414035000720069006E00743D
:101B700000720062006F00740000002203500072C7
:101B80000069006E007400720062006F0074002033
:101B900000530069006D0070006C006500000016C5
:101BA000033100320033003400350036003700388E
:101BB00000390030000000494E46494E4954594E04
:101BC000414ECDCCCC3D0AD7233C17B7D13877CC8A
:101BD0002B329595E6241FB14F0A000020410000EA
:101BE000C84200401C4620BCBE4CCA1B0E5AAEC5A3
:101BF0009D74782D9C8CE2CCFBD79FE6712D11242F
:101C00001FBECFEFD0E2DEBFCDBF14E0A0E0B1E059
:101C1000EAE0F9ED01E00BBF02C007900D92AC3095
:101C2000B107D9F71BBE12E1ACE0B4E001C01D92D0
:101C3000A231B107E1F71BE1CCEFDBE104C0229751
:101C4000FE010E942AECC23FD107C9F70E945DE362
:101C50000C9478EC0C940000A0E0B0E0E2E3FEE02D
:101C60000C9447ECEC015B016115710519F0FB0167
:101C700091838083F9908F2D90E00E942EEC892B28
:101C8000C9F7FDE2FF1621F4F990EE24E39405C0B4
:101C90002BE2F21609F4F990EE248E010150104067
:101CA000C80167EB7BE143E050E00E94CB10892B39
:101CB00001F58E010E5F1F4FC8016AEB7BE145E025
:101CC00050E00E94CB10892B19F48E01095F1F4F41
:101CD000A114B10419F0F50111830083E0FC04C0E4
:101CE00070E090E080E814C070E090E080E86FEF72
:101CF00008C1C8016FEB7BE143E050E00E94CB10CC
:101D0000892B69F4A114B10429F470E090E080EC0F
:101D10006FE7F7C02296F501D183C083F6CF882400
:101D2000992440E050E060E070E0EF2DE053EA30AD
:101D3000A0F5F2E0EF2A8E2D90E09C012870307023
:101D4000E2FE06C0232B79F50894811C911C2BC060
:101D5000232B19F0089481089108DB01CA0112E0D5
:101D6000880F991FAA1FBB1F1A95D1F7480F591F3B
:101D70006A1F7B1F440F551F661F771F4E0F511D93
:101D8000611D711D483929E9520729E9620729E1D6
:101D9000720748F084E0E82A06C0EE3F31F4E3FC25
:101DA00039C098E0E92AF990C0CFE53311F0E53168
:101DB00089F529912D3219F4E0E1EE2A05C02B3284
:101DC00019F081E090E003C0299182E090E0E22FD9
:101DD000E053EA3018F0C81BD90B1CC020E030E0FB
:101DE000FCE020383F075CF4C901880F991F880F79
:101DF000991F280F391F220F331F2E0F311DE99114
:101E0000E053EA3068F3E4FE03C0309521953F4F7C
:101E1000820E931ECE2CDD24E1FE07C0A114B10476
:101E200021F02197F501D183C083CB01BA010E9433
:101E300093E87B018C01F3E0CF22DD2423E0C2167E
:101E4000D10421F417FB109517F91095570168017B
:101E5000C801B70120E030E040E050E00E94F3E725
:101E6000882309F44AC097FE0DC026EDE22E2BE12F
:101E7000F22E9094819491089394C0E2D0E000E017
:101E800010E012C09EEEE92E9BE1F92EF6CFF7018D
:101E90002591359145915491C601B5010E94D3EA2F
:101EA0005B016C018C1A9D0A8C169D0684F7D595F2
:101EB000C7950F5F1F4F0630110529F08CEF9FEF7C
:101EC000E80EF91EF1CFC501D6017C018D018C2DE4
:101ED000880F8D2D881F8F3F51F0C601B50120E07E
:101EE00030E040E050E00E94F3E7882331F482E2E2
:101EF00090E090931112809310127E2D9F2D802FD1
:101F0000612F272F392F482F562FB901CA01CDB77E
:101F1000DEB7ECE00C9463EC2F923F925F926F92ED
:101F20007F928F929F92AF92BF92CF92DF92EF9269
:101F3000FF920F931F93CF93DF938C011B01EA0154
:101F40006115710519F0FB0191838083209749F099
:101F5000CE010297839728F020E030E040E050E087
:101F6000F6C0F801A1908F018A2D90E00E942EEC1E
:101F7000892BB9F7FDE2AF1631F4F801A1908F017A
:101F80005524539407C0FBE2AF1619F4F801A19051
:101F90008F015524209719F0C031D105C1F4F0E329
:101FA000AF1679F4F8018081883711F0883549F44B
:101FB000F801A1800E5F1F4FF2E05F2AC0E1D0E080
:101FC00006C0209721F480E3A816E9F427C0C830A2
:101FD000D10531F1C930D10524F4C230D10531F534
:101FE0000CC0CA30D10589F0C031D105F9F4C12C3B
:101FF000D12CE12CB8E0FB2E28C0C12CD12CE12C37
:10200000A0E4FA2E22C0CAE0D0E0FCECCF2EFCEC1B
:10201000DF2EFCECEF2EFCE0FF2E17C0C8E0D0E076
:10202000C12CD12CE12CE0E1FE2E0FC09E014427F3
:1020300037FD4095542F60E070E080E090E80E940A
:10204000EBEBC901DA016C017D0120E030E040E0FA
:1020500050E060E03E01882477FC8094982C70ED7D
:10206000B72EBA0CE9E0EB1570F48A2D81548A3151
:1020700018F499ECB92E06C08A2D81568A3150F594
:1020800089EAB82EBA0C8B2D90E08C179D0714F5B9
:102090006F3FE1F0C216D306E406F506B0F0CA01C0
:1020A000B901A40193010E94A5EB9B01AC012B0D8A
:1020B000311D411D511D2130F0E03F07F0E04F0779
:1020C000F0E85F0710F461E001C06FEFF801A19044
:1020D0008F01C5CF2114310481F0662331F0015006
:1020E0001040F1011183008308C051FE1AC0025054
:1020F0001040F1011183008314C067FF12C050FC2F
:1021000005C02FEF3FEF4FEF5FE704C020E030E066
:1021100040E050E882E290E0909311128093101218
:1021200016C050FE08C050954095309521953F4F00
:102130004F4F5F4F0CC057FF0AC082E290E0909370
:102140001112809310122FEF3FEF4FEF5FE7B901AD
:10215000CA01DF91CF911F910F91FF90EF90DF9017
:10216000CF90BF90AF909F908F907F906F905F9037
:102170003F902F900895FB01DC0105900D92002007
:10218000E1F70895FC0105900020E9F7809590950E
:102190008E0F9F1F0895FB01DC014150504088F0D5
:1021A0008D9181341CF08B350CF4805E6591613427
:1021B0001CF06B350CF4605E861B611171F3990B9A
:1021C0000895881BFCCFFB01DC014150504048F0D2
:1021D00005900D920020C9F701C01D92415050405A
:1021E000E0F70895FB0155915523A9F0BF01DC01EB
:1021F0004D9145174111E1F759F4CD0105900020AB
:1022000049F04D9140154111C9F3FB014111EFCF48
:1022100081E090E001970895FB01DC0104C08D91FD
:102220000190801921F441505040C8F7881B990B48
:102230000895FB01DC0102C001900D924150504015
:10224000D8F70895FB01DC010D900020E9F7119704
:1022500001900D920020E1F70895FC01819186170D
:1022600021F08823D9F7992708953197CF01089550
:10227000FB01DC0101900D920020E1F70895FB01C4
:10228000DC014150504030F08D910190801919F4DB
:102290000020B9F7881B990B0895FB01DC01415020
:1022A000504048F001900D920020C9F701C01D92E6
:1022B00041505040E0F70895AEE0B0E0E2E6F1E1D1
:1022C0000C944FEC0D891E898EE08C831A83098350
:1022D0008FEF9FE79E838D839E01275E3F4FCE0148
:1022E00001966F89788DA9010E9480112F81388510
:1022F000020F131FF80110822E96E4E00C946BEC91
:10230000ABE0B0E0E6E8F1E10C9441EC3C012B01DC
:102310005A01FC0117821682838181FD03C06FEF91
:102320007FEFC6C19AE0892E1E010894211C311C42
:10233000F3012381F20123FD859123FF81912F0178
:10234000882309F4B2C1853239F423FD859123FF36
:1023500081912F01853229F490E0B3010E9473131B
:10236000E7CF982FFF24EE249924FFE1FF15D0F04A
:102370009B3269F09C3228F4903259F0933291F4F8
:102380000EC09D3249F0903369F441E024C052E020
:10239000F52A84E0F82A28C098E0F92A25C0E0E16F
:1023A000FE2A22C0F7FC29C0892F80538A3070F49E
:1023B000F6FE05C0989C902C1124980E15C0E89C40
:1023C000E02C1124E80EF0E2FF2A0EC09E3229F420
:1023D000F6FC6BC140E4F42A07C09C3619F450E8BF
:1023E000F52A02C0983649F4F20123FD959123FFA6
:1023F00091912F01992309F0B8CF892F855483300B
:1024000018F08052833038F444E050E0A40EB51E3A
:102410005FE359830FC0933631F0933779F09335EA
:1024200009F056C020C0F5018081898342E050E068
:10243000A40EB51E610101E010E012C0F501C080DC
:10244000D180F6FC03C06FEF7FEF02C0692D70E012
:1024500042E050E0A40EB51EC6010E9468138C0134
:102460005FE7F52214C0F501C080D180F6FC03C0FF
:102470006FEF7FEF02C0692D70E042E050E0A40EE4
:10248000B51EC6010E945D138C0150E8F52AF3FECB
:1024900007C01AC080E290E0B3010E947313EA946F
:1024A0008E2D90E008171907A8F30EC0F601F7FC6F
:1024B0008591F7FE81916F0190E0B3010E94731343
:1024C000E110EA94015010400115110579F7EAC0B6
:1024D000943611F0993669F5F7FE08C0F5012081B0
:1024E00031814281538184E090E00AC0F50180810E
:1024F00091819C01442737FD4095542F82E090E064
:10250000A80EB91E9FE6F92257FF09C050954095C5
:10251000309521953F4F4F4F5F4FE0E8FE2ACA01AB
:10252000B901A1012AE030E00E949F13D82ED218F1
:1025300040C0953729F41F2D1F7E2AE030E01DC0D2
:102540001F2D197F9F3661F0903720F4983509F0E0
:10255000ACC00FC0903739F0983709F0A6C004C05E
:1025600028E030E00AC0106114FD146020E130E082
:1025700004C014FD166020E132E017FF08C0F50129
:10258000608171818281938144E050E008C0F5014F
:1025900080819181BC0180E090E042E050E0A40E97
:1025A000B51EA1010E949F13D82ED2188FE7F82ED6
:1025B000F122F6FE0BC05EEFF522D91438F4F4FEDA
:1025C00007C0F2FC05C08FEEF82202C01D2D01C02D
:1025D000192DF4FE0DC0FE01ED0DF11D808180333B
:1025E00019F499EEF92208C01F5FF2FE05C003C07E
:1025F0008F2D867809F01F5F0F2DF3FC14C0F0FEBD
:102600000FC01E1510F09D2C0BC09D2C9E0C911A16
:102610001E2D06C080E290E0B3010E9473131F5F7D
:102620001E15C0F304C01E1510F4E11A01C0EE24FB
:1026300004FF0FC080E390E0B3010E94731302FF18
:102640001DC001FD03C088E790E00EC088E590E062
:102650000BC0802F867891F001FF02C08BE201C091
:1026600080E2F7FC8DE290E0B3010E94731306C094
:1026700080E390E0B3010E9473139A94D914C0F3DD
:10268000DA94F101ED0DF11D808190E0B3010E941B
:102690007313DD20A9F706C080E290E0B3010E9429
:1026A0007313EA94EE20C1F743CEF301668177817C
:1026B000CB012B96E2E10C945DECFC01059061509E
:1026C00070400110D8F7809590958E0F9F1F089548
:1026D000FC016150704001900110D8F780959095F1
:1026E0008E0F9F1F08950F931F93CF93DF938C013D
:1026F000EB018B8181FF1BC082FF0DC02E813F81CA
:102700008C819D812817390764F4E881F981019350
:10271000F983E88306C0E885F985802F0995892B20
:1027200031F48E819F8101969F838E8302C00FEFCB
:102730001FEFC801DF91CF911F910F910895FA010A
:10274000AA27283051F1203181F1E8946F936E7FF0
:102750006E5F7F4F8F4F9F4FAF4FB1E03ED0B4E0E1
:102760003CD0670F781F891F9A1FA11D680F791F22
:102770008A1F911DA11D6A0F711D811D911DA11D33
:1027800020D009F468943F912AE0269F1124301943
:10279000305D3193DEF6CF010895462F4770405DDE
:1027A0004193B3E00FD0C9F7F6CF462F4F70405D8D
:1027B0004A3318F0495D31FD4052419302D0A9F7E8
:1027C000EACFB4E0A6959795879577956795BA95E2
:1027D000C9F700976105710508959B01AC010A2EA8
:1027E00006945795479537952795BA95C9F7620F7F
:1027F000731F841F951FA01D0895DF93CF930F9221
:10280000CDB7DEB7FC016983A081B18112962D910D
:102810003C911397BE016F5F7F4F41E050E0F9019B
:1028200009950F90CF91DF910895FC0112821382D8
:102830000895FC018381882311F081E0828308954B
:10284000FC018281811112820895CF93DF93DC0114
:10285000FC01E756FE4F808191810097A1F101971D
:1028600091838083ED01CE5ADF4FFD01E059FF4F88
:102870008BE1019009928150E1F7FD01EF5AFF4F82
:10288000A159BF4F8C91AF56B0408083FD01E059F4
:10289000FF4F20E030E0AD0147565E4F0EC02F5F86
:1028A0003F4FEF01DF015E968BE10D900992815061
:1028B000E1F7858D319780837F96DA018D919C9128
:1028C0002817390760F3DF91CF910895FC0181E962
:1028D00093E0918380838681882321F0CF01039642
:1028E0000E94AF7E0895CF93DF93DB010D9000200F
:1028F000E9F71197A61BB70BEC01E881F98102807B
:10290000F381E02DAD010995DF91CF910895CF922C
:10291000DF92EF92FF920F931F93DF93CF93CDB788
:10292000DEB76E970FB6F894DEBF0FBECDBF8C0139
:102930006B010B5A1F4FD8018C910555104088230D
:1029400021F47FE2E72EF12C03C06FE4E62EF12C98
:10295000E00EF11E81E993E09A8389831B821F8236
:102960001C82B7016D5F7F4FCE010496A60121E066
:102970000E94BD85882349F5EFEEF0E064918F0158
:1029800008C086E092E10E94FD130F5F1F4FF8011F
:1029900064916623B1F7E5EFF0E064918F0108C020
:1029A00086E092E10E94FD130F5F1F4FF8016491D2
:1029B0006623B1F786E092E1B6010E94731486E0C7
:1029C00092E16AE00E94FD1357C0F801E756FE4FFE
:1029D000208131812A30310508F03FC02F5F3F4F01
:1029E0003183208321503040C901880F991FF9019C
:1029F00045E0EE0FFF1F4A95E1F7E81BF90BE059A0
:102A0000FF4FE00FF11F11C0AF01425E5F4FBF01EA
:102A10008BE1DB010D90BD01DA010D92AD0181501A
:102A2000C1F782913196858F7E9721503040BFEF5C
:102A30002E3F3B0749F7D801A059BF4FF701339606
:102A40008BE101900D928150E1F701591F4FF70181
:102A50008281D8018C930F561040D801AE5ABF4FD7
:102A6000FE0134968BE101900D928150E1F70F5AEF
:102A70001F4F8B81F8018083CE0101960E9466145E
:102A80006E960FB6F894DEBF0FBECDBFCF91DF912B
:102A90001F910F91FF90EF90DF90CF900895EF92EC
:102AA000FF920F931F938C01E1ECEE2EE1E0FE2EDE
:102AB000E80EF91EC7010E945F7EC7010E94AF7E2B
:102AC000F801108211821F910F91FF90EF900895ED
:102AD000CF92DF92EF92FF920F931F93CF93DF93EA
:102AE0007C016B01DB010D900020E9F78D010150A5
:102AF0001040061B170BE1ECF1E0EE0EFF1ED701B4
:102B00001C92EFE3FEEFEE0EFF1ECB016EE470E0D1
:102B10000E942D11EC01009731F4F8013197EC0D72
:102B2000FD1D86010EC060E270E00E942D118C0137
:102B30000F5F1F4FCE016AE270E00E942D11FC0171
:102B400031978DE081838AE082831382C7018254AA
:102B50009E4FB8010E94BF8681EC91E0E80EF91EFD
:102B6000D7018C91882309F1EFE1F1E06491EF0145
:102B700007C086E092E10E94FD132196FE01649158
:102B80006623B9F7E6E2F1E06491EF0107C086E061
:102B900092E10E94FD132196FE0164916623B9F72C
:102BA00086E092E16AE00E94FD13DF91CF911F91D0
:102BB0000F91FF90EF90DF90CF900895EF92FF92EA
:102BC0000F93CF93DF937C01FC018381882309F469
:102BD0003FC0EEE4F1E06491EF0107C086E092E1CE
:102BE0000E94FD132196FE0164916623B9F786E7E2
:102BF00092E0E80EF91EF7014081518162817381F4
:102C00008AE89DEFE80EF91E86E092E12AE000E0F6
:102C10000E94AAE3ECE4F1E06491EF0107C086E0D2
:102C200092E10E94FD132196FE0164916623B9F79B
:102C30008EE692E0E80EF91EF70140815181628133
:102C4000738186E092E12AE000E00E94AAE30EC0D0
:102C5000ECE3F1E06491EF0107C086E092E10E94AD
:102C6000FD132196FE0164916623B9F786E092E197
:102C70006AE00E94FD13DF91CF910F91FF90EF90DA
:102C800008952F923F924F925F926F927F928F9210
:102C90009F92AF92BF92CF92DF92EF92FF920F93EB
:102CA0001F93DF93CF93CDB7DEB7AB970FB6F894F2
:102CB000DEBF0FBECDBF5C014B01FC0183818823C9
:102CC00009F41AC1C5018F539E4F0E94AF7EF501D2
:102CD0001282198A1C8A188A81E993E09F878E875D
:102CE000ADE4CA2ED12CCA0CDB1C2FE230E0A20EC0
:102CF000B31EF601B182A08221ED3FEFA20EB31EFA
:102D0000F40180818F3209F081C0C4016FE270E06C
:102D10000E942D117C010894E11CF11C3E010894D5
:102D2000611C711C2601F1E12F2E312C2C0E3D1E51
:102D300068C0C7016FE270E00E942D116C0100971E
:102D400009F472C0E816F90608F06EC08C010E197D
:102D50001F09C301B701A8010E944D11060D171DDF
:102D6000F801108286E092E1B3010E94731486E0BC
:102D700092E16AE00E94FD13F201608171816115A8
:102D8000710519F460E070E002C06D5F7F4FC10112
:102D9000A30121E00E94BD85882341F5EAE8F1E026
:102DA00064917F0109C086E092E10E94FD130894BE
:102DB000E11CF11CF70164916623A9F786E092E11A
:102DC000BE016F5F7F4F0E947314E8E8F1E06491E9
:102DD0007F0109C086E092E10E94FD130894E11C86
:102DE000F11CF70164916623A9F77DC02EE030E065
:102DF0002C0F3D1FF2013183208376010894E11CE2
:102E0000F11CE114F10409F094CF0BC08FE490E0C1
:102E1000A80EB91EF601B182A08221EB3FEFA20EEF
:102E2000B31ED82C092D02C0DE2C0F2D8DE490E0AE
:102E3000A80EB91EF5018081918123EB3FEFA20E10
:102E4000B31E009719F480E090E001C003966D2D49
:102E5000702F0E948F86882301F1EAE7F1E06491E8
:102E60007F0109C086E092E10E94FD130894E11CF5
:102E7000F11CF70164916623A9F786E092E16D2DBC
:102E8000702F0E94731426E732E0A20EB31EF501E4
:102E900010821182128213822BC0E2E6F1E064916B
:102EA0007F0109C086E092E10E94FD130894E11CB5
:102EB000F11CF70164916623A9F786E092E16D2D7C
:102EC000702F0E947314E0E6F1E064917F0109C065
:102ED00086E092E10E94FD130894E11CF11CF701C9
:102EE00064916623A9F786E092E16AE00E94FD13EF
:102EF000CE010E960E946614AB960FB6F894DEBF14
:102F00000FBECDBFCF91DF911F910F91FF90EF903A
:102F1000DF90CF90BF90AF909F908F907F906F90F9
:102F20005F904F903F902F900895BF92CF92DF9285
:102F3000EF92FF920F931F93CF93DF938C01EB01DE
:102F40008FE28993EE24E394FF2489E9C82E81E07F
:102F5000D82EC00ED11EBEE1BB2E14C0FB9CC001FA
:102F6000112480599F4F800F911FBE010E94C17E86
:102F700002C02196E3948881882319F08CE88E158D
:102F8000C0F7F3942F2D30E0F6018081918128174E
:102F9000390720F3E7FC07C0C8018F539E4FBE01DD
:102FA0000E94C17E01C01882DF91CF911F910F91C5
:102FB000FF90EF90DF90CF90BF9008952F923F92B7
:102FC0004F925F926F927F928F929F92AF92BF9239
:102FD000CF92DF92EF92FF920F931F93DF93CF93E5
:102FE000CDB7DEB7AC970FB6F894DEBF0FBECDBF3E
:102FF0005C014B014CA7DC0113968C91882309F4EA
:1030000007C3E4ECF1E0AE0EBF1ED5018C91ECE3FA
:10301000FEEFAE0EBF1E882309F404C1222309F07F
:10302000D1C02CED31E0A20EB31ED5018C91E4E2AB
:10303000FEEFAE0EBF1E882381F1EFE1F1E0649157
:103040007F0109C086E092E10E94FD130894E11C13
:10305000F11CF70164916623A9F7E2E6F2E06491BE
:103060007F0109C086E092E10E94FD130894E11CF3
:10307000F11CF70164916623A9F786E092E141E033
:1030800050E060E070E00E9437E486E092E16AE0A0
:103090000E94FD130E94E72DBBC2EFEEF0E06491A9
:1030A0007F0109C086E092E10E94FD130894E11CB3
:1030B000F11CF70164916623A9F7E9E4F2E0649159
:1030C0007F0109C086E092E10E94FD130894E11C93
:1030D000F11CF70164916623A9F786E092E1B4013F
:1030E0000E947314EEE3F2E064917F0109C086E070
:1030F00092E10E94FD130894E11CF11CF701649118
:103100006623A9F7850104521E4FD8016C915DE832
:10311000F52E6F9DB00111246F517E4F6A0D7B1DFE
:10312000C5010E949517F80160816F9DB0011124BF
:103130006F517E4F6A0D7B1D86E092E10E947314F1
:10314000E8E3F2E064917F0109C086E092E10E9429
:10315000FD130894E11CF11CF70164916623A9F7A3
:1031600046E7E42E42E0F42EEA0CFB1CD7014D9119
:103170005D916D917C9186E092E12AE000E00E94F1
:10318000AAE386E092E16AE00E94FD13A5014452A1
:103190005E4FFA012081E22FF0E0EE0FFF1FEE0FED
:1031A000FF1FEA0DFB1DE352FE4FD701CD90DD90CE
:1031B000ED90FC90C082D182E282F3822F5FFA010F
:1031C00020832AC0EFEEF0E064917F0109C086E021
:1031D00092E10E94FD130894E11CF11CF701649137
:1031E0006623A9F7E7E2F2E064917F0109C086E077
:1031F00092E10E94FD130894E11CF11CF701649117
:103200006623A9F786E092E1B4010E94731486E078
:1032100092E16AE00E94FD13C5018F539E4F0E9408
:10322000AF7E34C02CED31E0A20EB31ED5011C924E
:10323000E4E2FEEFAE0EBF1EEFEEF0E064917F0120
:1032400009C086E092E10E94FD130894E11CF11C84
:10325000F70164916623A9F7E6E1F2E064917F014A
:1032600009C086E092E10E94FD130894E11CF11C64
:10327000F70164916623A9F786E092E1B4010E9408
:10328000731486E092E16AE00E94FD13D501129664
:103290001C92198A1C8A188A81E993E09F878E877D
:1032A0002DE4C22ED12CCA0CDB1CEFE2F0E0AE0EF6
:1032B000BF1ED601AD92BC92E1EDFFEFAE0EBF1E78
:1032C000D4018C918F3209F081C0C4016FE270E0AB
:1032D0000E942D117C010894E11CF11C3E01089410
:1032E000611C711C260191E1292E312C2C0E3D1EF2
:1032F00068C0C7016FE270E00E942D116C01009759
:1033000009F472C0E816F90608F06EC08C010E19B7
:103310001F09C301B701A8010E944D11060D171D19
:10332000F801108286E092E1B3010E94731486E0F6
:1033300092E16AE00E94FD13D2016D917C916115CA
:10334000710519F460E070E002C06D5F7F4FC1014C
:10335000A30121E00E94BD85882341F5E2E0F2E06F
:1033600064917F0109C086E092E10E94FD130894F8
:10337000E11CF11CF70164916623A9F786E092E154
:10338000BE016F5F7F4F0E947314E0E0F2E0649132
:103390007F0109C086E092E10E94FD130894E11CC0
:1033A000F11CF70164916623A9F707C1EEE0F0E094
:1033B000EC0FFD1FD201ED93FC9376010894E11C04
:1033C000F11CE114F10409F094CF0BC02FE430E0BC
:1033D000A20EB31ED601AD92BC92E1EBFFEFAE0E92
:1033E000BF1ED82CC92C02C0DE2CCF2CF501E35B0C
:1033F000FF4F2CA5222309F4A6C0608171816115BD
:10340000710519F460E070E002C06D5F7F4FC50187
:103410008F539E4F4D2D5C2D21E00E94BD8588234A
:1034200009F46AC0A50142595D4F82ED91E0A80EF2
:10343000B91EF50180819181A281B3812EE23EEF18
:10344000A20EB31EFA0180839183A283B383E2EFBD
:10345000F1E064917F0109C086E092E10E94FD13D2
:103460000894E11CF11CF70164916623A9F786E03A
:1034700092E16D2D7C2D0E947314EAEEF1E06491CF
:103480007F0109C086E092E10E94FD130894E11CCF
:10349000F11CF70164916623A9F72EE632E0A20E33
:1034A000B31ED5014D915D916D917C9186E092E1C5
:1034B0002AE000E00E94AAE386E092E16AE00E942E
:1034C000FD13E8E0F0E0AE0EBF1ED5011D921D9287
:1034D0001D921C921397ECEDF1E064917F0109C0FD
:1034E00086E092E10E94FD130894E11CF11CF701B3
:1034F00064916623A9F77FC0E8ECF1E064917F0155
:1035000009C086E092E10E94FD130894E11CF11CC1
:10351000F70164916623A9F786E092E16D2D7C2D79
:103520000E947314E6ECF1E064917F0109C086E02B
:1035300092E10E94FD130894E11CF11CF7016491D3
:103540006623A9F73AC0608171816115710519F48C
:1035500060E070E002C06D5F7F4FC5018F539E4FEA
:103560004D2D5C2D26E50E94BD85882361F5E2EB9B
:10357000F1E064917F0109C086E092E10E94FD13B1
:103580000894E11CF11CF70164916623A9F786E019
:1035900092E16D2D7C2D0E947314E0EBF1E06491BB
:1035A0007F0109C086E092E10E94FD130894E11CAE
:1035B000F11CF70164916623A9F786E092E16AE0C5
:1035C0000E94FD1321C081E0D5018C93EEE9F1E06A
:1035D00064917F0109C086E092E10E94FD13089486
:1035E000E11CF11CF70164916623A9F786E092E1E2
:1035F000B4010E94731486E092E16AE00E94FD1318
:103600008D2D9C2D0E9442CDCE010E960E946614F7
:10361000AC960FB6F894DEBF0FBECDBFCF91DF9151
:103620001F910F91FF90EF90DF90CF90BF90AF90E0
:103630009F908F907F906F905F904F903F902F90D2
:103640000895EF92FF920F931F93CF93DF93EC01B6
:103650000E94218E8E0104521E4FD8018C91E1EC04
:10366000EE2EE1E0FE2EEC0EFD1E8823A1F1C70137
:103670000E94AF7EF8016081615060838DE8689F91
:10368000B00111246F517E4F6C0F7D1FCE0141E0C0
:1036900021E00E94DE17D801EC91F0E0EE0FFF1F51
:1036A000EE0FFF1FEC0FFD1FE352FE4F40815181D3
:1036B00062817381CA58DD4F488359836A837B8353
:1036C000C657D240C7010E94957D8B81882389F11E
:1036D00081E08A832EC00E94798CC7010E94AF7E50
:1036E0001A8283EE90E00E94B25F80911C098823C9
:1036F00001F110921C098091BE06C82FD0E0CC0FBA
:10370000DD1FCF56DF4E68817981882777FD809550
:10371000982F0E9495E82091D9023091DA024091C9
:10372000DB025091DC020E9401EA181614F419829F
:103730001882DF91CF911F910F91FF90EF90089524
:10374000FC0181E08183CF0140E021E00E94DE178F
:103750000895EF92FF920F931F93CF93DF938C0105
:10376000FC01138285A9882321F0C801C2960E941A
:10377000AF7EFBE9EF2EF1E0FF2EE00EF11EC70158
:1037800060E044E10E944F7C8823E9F4EFEEF0E032
:103790006491EF0107C086E092E10E94FD1321963B
:1037A000FE0164916623B9F7E3EDF2E06491EF0165
:1037B00007C086E092E10E94FD132196FE0164910C
:1037C0006623B9F771C0E801C056DE4FCE01B701DC
:1037D00041E00E945487882321F5CE01B70140E0E3
:1037E0000E9454878823E9F4EFE1F1E06491EF014E
:1037F00007C086E092E10E94FD132196FE016491CC
:103800006623B9F7E0ECF2E06491EF0107C086E0CF
:1038100092E10E94FD132196FE0164916623B9F79F
:1038200043C0C801C296BE010E94B0818823E9F45A
:10383000EFE1F1E06491EF0107C086E092E10E94C0
:10384000FD132196FE0164916623B9F7E0EBF2E0E7
:103850006491EF0107C086E092E10E94FD1321967A
:10386000FE0164916623B9F71FC081E0F8018383EC
:10387000EFEEF0E06491EF0107C086E092E10E9474
:10388000FD132196FE0164916623B9F7E5EAF2E0A3
:103890006491EF0107C086E092E10E94FD1321963A
:1038A000FE0164916623B9F786E092E16AE00E9426
:1038B000FD13D801AE5ABF4FF801F2968BE101908B
:1038C0000D928150E1F7F80181A90F5A1F4FF801BD
:1038D000808301551040C8018F96035B1F4FF8018C
:1038E00091838083DF91CF911F910F91FF90EF9093
:1038F00008952F923F924F925F926F927F929F9284
:10390000AF92BF92CF92DF92EF92FF920F931F93ED
:10391000DF93CF93CDB7DEB7CC55D0400FB6F89438
:10392000DEBF0FBECDBF8C01662319F506581D4FB3
:10393000D8018C910A571240882309F4E7C00FB6CA
:10394000F8942091FE113091FF1140910012509196
:1039500001120FBE0E581D4FF80180819181A28186
:10396000B3810257124082179307A407B50708F4E2
:10397000CDC006581D4FD8011C920A571240F801BD
:103980008381882349F4C8010E94A91BD80113969A
:103990008C91882309F4BAC000D000D000D0EDB7D4
:1039A000FEB731966E010894C11CD11CADB7BEB7ED
:1039B0001296DC92CE92119786E191E093838283F6
:1039C000D8019D968D919C919E97958384830E94AA
:1039D0005C117601EDB7FEB736960FB6F894FEBFD0
:1039E0000FBEEDBF56010AC0D7018C91992787FD04
:1039F00090950E9436ECF70181937F01F5010190CB
:103A00000020E9F73197EA19FB098E2D8C198E17E2
:103A10005CF392E3A92EB12CA00EB11EC50140E0CB
:103A200050E060E070E00E94957D99248DE3C82EFF
:103A3000D12CCC0EDD1E2E010894411C511CBFE17F
:103A40006B2E712C6C0E7D1EAFE02A2EA1E03A2E5B
:103A500043C0D7018C9190E00E9436ECF70181932E
:103A60007F01D6010D900020E9F71197AC19BD092F
:103A70008E2D8C198A176CF327968FAD27978E376A
:103A800059F1C601B20145E050E00E943F11009794
:103A900019F500D000D000D0EDB7FEB73196ADB724
:103AA000BEB712967C926E92119733822282558213
:103AB00044820E945C11EDB7FEB736960FB6F894BB
:103AC000FEBF0FBEEDBFC3010E9429608BE091E0F5
:103AD0000E94B25F99249394C501B60140E050E082
:103AE0000E94CC80181614F47601BBCF992041F4C3
:103AF0008FEF9FEFD8019E969C938E939D9706C063
:103B0000F80185A596A5019696A785A7C45ADF4F0B
:103B10000FB6F894DEBF0FBECDBFCF91DF911F91DE
:103B20000F91FF90EF90DF90CF90BF90AF909F905C
:103B30007F906F905F904F903F902F9008952F92BD
:103B40003F924F925F926F927F928F929F92AF922D
:103B5000BF92CF92DF92EF92FF920F931F93DF936A
:103B6000CF93CDB7DEB7CD58D0400FB6F894DEBFB7
:103B70000FBECDBF7C012B015A0183E090E0A80E5F
:103B8000B91EF7017196C957DF4FF983E883C7580B
:103B9000D040C7010496CC57DF4F99838883C4581F
:103BA000D040CA57DF4F1882C658D04054E6C52EC1
:103BB000D12CCC0EDD1EF6013B96C757DF4FF983A3
:103BC000E883C958D0404BE7642E42E0742E6E0C57
:103BD0007F1C3DE7832E32E0932E8E0C9F1C26E443
:103BE000222E312C2C0E3D1EC1010396C557DF4FEE
:103BF00099838883CB58D040EFEEF0E09491C3577F
:103C0000DF4F9883CD58D04030C1F6018385482FCF
:103C100050E0BA01687170706031710509F033C10C
:103C2000F301208131812130310509F42CC122308A
:103C3000310509F428C1F601DE0111969081903218
:103C400039F08E2F8C19883011F48EE28D939D936C
:103C50003196C757DF4F88819981C958D040E817FE
:103C6000F90761F71C921E86F2018081882331F4E6
:103C7000CE010E9660E071E00E942211CE010E96F8
:103C8000B2010E942211CE010E96BE016F5F7F4FDE
:103C90000E942211CE010E9660E071E00E94221176
:103CA0001BA61EA61AA681E993E099A788A7CE01B4
:103CB0008B96B501AE014F5F5F4F21E00E94BD853D
:103CC000882371F5F30180819181892B49F5C357D0
:103CD000DF4F6881CD58D0400FEE10E008C086E07D
:103CE00092E10E94FD130F5F1F4FF801649166235C
:103CF000B1F786E092E162E071E00E94731486E021
:103D000092E16AE00E94FD1386E092E1BE016F5FDE
:103D10007F4F0E94731486E092E16AE00E94FD13D7
:103D2000C557DF4FA881B981CB58D040FE01BB9663
:103D30008BE101900D928150E1F78AA5F101828318
:103D400081E993E091838083C701BE01625F7F4F69
:103D5000A1010E949F1DC1010E946614CE01889698
:103D60000E94661482C0953E09F47FC09E3209F419
:103D70007CC09F3509F479C0F7019189992331F00E
:103D80009E3209F472C09F3509F46FC043FD6DC0C7
:103D900080E06031710509F481E0F70184A7882390
:103DA00049F4F6018085873409F05FC081858E373C
:103DB00009F45BC0CC57DF4FA881B981C458D0400B
:103DC000F6018081803241F08E2F8C19883011F4F9
:103DD0008EE28D9380818D933196C757DF4F888116
:103DE0009981C958D040E817F90759F71C92F30197
:103DF000808191810097A9F486E092E1B2010E944E
:103E0000731486E092E1CC57DF4F68817981C45802
:103E1000D0400E94731486E092E16AE00E94FD1394
:103E200024C08130910539F4F4018081918101969B
:103E3000918380831AC00297C1F4CA57DF4FF8817B
:103E4000C658D0402F2F30E0F4018081918128178F
:103E50003907F1F0CA57DF4FF881C658D040FF5FED
:103E6000CA57DF4FF883C658D040C501B601C957BD
:103E7000DF4F48815981C758D0400E94CC80181626
:103E80000CF4C3CE05C0F6019081992309F06BCFE5
:103E9000C357DF4F0FB6F894DEBF0FBECDBFCF9133
:103EA000DF911F910F91FF90EF90DF90CF90BF9027
:103EB000AF909F908F907F906F905F904F903F90CA
:103EC0002F900895EF92FF920F931F93DF93CF935C
:103ED000CDB7DEB76E970FB6F894DEBF0FBECDBF7D
:103EE0007C018C01035B1F4F815B9F4FF801918325
:103EF00080832BE732E0E20EF31E21E030E0F70191
:103F0000219331937F011182108223E83DEFE20E6D
:103F1000F31E039640E050E060E070E00E94957D63
:103F2000F80120813181DE011496F90133968BE18D
:103F300001900D928150E1F7F90182818B8381E933
:103F400093E09A838983C70165E171E08E010F5F79
:103F50001F4FA8010E949F1DC8010E946614F7010F
:103F6000E358FD4F808191816E960FB6F894DEBFC5
:103F70000FBECDBFCF91DF911F910F91FF90EF90BA
:103F80000895EF92FF920F931F93DF93CF93CDB7D6
:103F9000DEB76E970FB6F894DEBF0FBECDBF7C01C3
:103FA0008C01035B1F4F815B9F4FF80191838083DE
:103FB0002BE732E0E20EF31E22E030E0F70131831E
:103FC000208325E83DEFE20EF31EF701E358FD4F95
:103FD00060831182039640E050E060E070E00E9450
:103FE000957DF80120813181DE011496F901339627
:103FF0008BE101900D928150E1F7F90182818B8371
:1040000081E993E09A838983C70165E171E08E01BC
:104010000F5F1F4FA8010E949F1DC8010E946614D8
:104020006E960FB6F894DEBF0FBECDBFCF91DF9175
:104030001F910F91FF90EF900895EF92FF920F93D1
:104040001F93DF93CF93CDB7DEB76E970FB6F8947B
:10405000DEBF0FBECDBF7C018BE792E0E80EF91EFC
:10406000F7011182108285E89DEFE80EF91E8701A5
:104070000E5C1F4FC80140E050E060E070E00E941D
:10408000957DDE011496F8018BE101900D9281502F
:10409000E1F7F70181A98B8381E993E09A83898312
:1040A000C70165E171E08E010F5F1F4FA8010E94FB
:1040B0009F1DC8010E9466146E960FB6F894DEBF6D
:1040C0000FBECDBFCF91DF911F910F91FF90EF9069
:1040D0000895CF93DF93EC011AAA1DAA19AA81E9CA
:1040E00093E098AB8FA7CE5ADF4F188223961882A1
:1040F000C555D040FE01E15BFF4FCF5ADF4F18821C
:10410000C155D04091838083DE01A359BF4FFD018B
:1041100020E030E0482F1382168212824083918380
:10412000225E3F4F7E9681E02C323807A1F7C456BD
:10413000DE4F89E1888323961882689618822A9632
:10414000188223961882C45CD140FE01E254FE4FCF
:10415000C054DE4F188240839183C255DF4F1882CE
:1041600019821A821B822896188219821A821B824F
:10417000C657D2401A821B8218821982C756DE4F58
:1041800019821882CD5BDF4F1882FD01C90111929F
:104190000197E9F7C256DF4F81E08883CA57D240C2
:1041A0001EA61DA60FB6F8948091FE119091FF11E6
:1041B000A0910012B09101120FBE88579C4EAF4FD4
:1041C000BF4FCE58DD4F88839983AA83BB83DF918D
:1041D000CF9108950F931F93DF93CF93CDB7DEB7A1
:1041E0002A970FB6F894DEBF0FBECDBF809116019F
:1041F00090911701A0911801B09119018B839C83B4
:10420000AD83BE83FE01339624E630E08081F999C8
:10421000FECF1FBA32BD21BD80BD0FB6F894FA9A09
:10422000F99A0FBE2F5F3F4F2836310511F03196B6
:10423000EDCFE0ECF8E08081F999FECF1FBA32BDF6
:1042400021BD80BD0FB6F894FA9AF99A0FBE2F5F80
:104250003F4F2837310511F03196EDCFE0EBF8E014
:104260008081F999FECF1FBA32BD21BD80BD0FB646
:10427000F894FA9AF99A0FBE2F5F3F4F283831050C
:1042800011F03196EDCFE0EDF8E08081F999FECFA5
:104290001FBA32BD21BD80BD0FB6F894FA9AF99AC3
:1042A0000FBE2F5F3F4F2839310511F03196EDCF0A
:1042B000E4EEF8E08081F999FECF1FBA32BD21BD4E
:1042C00080BD0FB6F894FA9AF99A0FBE2F5F3F4F50
:1042D0002C39310511F03196EDCFE8EEF8E0808110
:1042E000F999FECF1FBA32BD21BD80BD0FB6F8943B
:1042F000FA9AF99A0FBE2F5F3F4F203A310511F01D
:104300003196EDCFE0EEF8E08081F999FECF1FBA4B
:1043100032BD21BD80BD0FB6F894FA9AF99A0FBE4E
:104320002F5F3F4F243A310511F03196EDCFE8EF82
:10433000F8E08081F999FECF1FBA32BD21BD80BD62
:104340000FB6F894FA9AF99A0FBE2F5F3F4F283AAA
:10435000310511F03196EDCFECEAF8E08081F99962
:10436000FECF1FBA32BD21BD80BD0FB6F894FA9AB8
:10437000F99A0FBE2F5F3F4F2C3A310511F031965D
:10438000EDCFECEEF8E08081F999FECF1FBA32BD97
:1043900021BD80BD0FB6F894FA9AF99A0FBE2F5F2F
:1043A0003F4F203B310511F03196EDCFE0EFF8E0C3
:1043B0008081F999FECF1FBA32BD21BD80BD0FB6F5
:1043C000F894FA9AF99A0FBE2F5F3F4F243B3105BC
:1043D00011F03196EDCFE4EFF8E08081F999FECF4E
:1043E0001FBA32BD21BD80BD0FB6F894FA9AF99A72
:1043F0000FBE2F5F3F4F283B310511F03196EDCFB7
:10440000E3EAF6E08081F999FECF1FBA32BD21BD03
:1044100080BD0FB6F894FA9AF99A0FBE2F5F3F4FFE
:10442000243C310511F03196EDCFE3EEF0E18081CF
:10443000F999FECF1FBA32BD21BD80BD0FB6F894E9
:10444000FA9AF99A0FBE2F5F3F4F263C310511F0C3
:104450003196EDCFE5EEF0E18081F999FECF1FBAFC
:1044600032BD21BD80BD0FB6F894FA9AF99A0FBEFD
:104470002F5F3F4F283C310511F03196EDCFE7EE2D
:10448000F0E18081F999FECF1FBA32BD21BD80BD18
:104490000FB6F894FA9AF99A0FBE2F5F3F4F2A3C55
:1044A000310511F03196EDCFE9EEF0E18081F99917
:1044B000FECF1FBA32BD21BD80BD0FB6F894FA9A67
:1044C000F99A0FBE2F5F3F4F2C3C310511F031960A
:1044D000EDCFEBEEF0E18081F999FECF1FBA32BD4E
:1044E00021BD80BD0FB6F894FA9AF99A0FBE2F5FDE
:1044F0003F4F2E3C310511F03196EDCFEDEEF0E15E
:104500008081F999FECF1FBA32BD21BD80BD0FB6A3
:10451000F894FA9AF99A0FBE2F5F3F4F203D31056C
:1045200011F03196EDCFECE9F2E08081F999FECF00
:104530001FBA32BD21BD80BD0FB6F894FA9AF99A20
:104540000FBE2F5F3F4F243D310511F03196EDCF67
:10455000E0EAF2E08081F999FECF1FBA32BD21BDB9
:1045600080BD0FB6F894FA9AF99A0FBE2F5F3F4FAD
:10457000283D310511F03196EDCFE4EAF2E080817B
:10458000F999FECF1FBA32BD21BD80BD0FB6F89498
:10459000FA9AF99A0FBE2F5F3F4F2C3D310511F06B
:1045A0003196EDCFEAEEF2E08081F999FECF1FBAA5
:1045B00032BD21BD80BD0FB6F894FA9AF99A0FBEAC
:1045C0002F5F3F4F203E310511F03196EDCFEEEEDB
:1045D000F2E08081F999FECF1FBA32BD21BD80BDC6
:1045E0000FB6F894FA9AF99A0FBE2F5F3F4F243E08
:1045F000310511F03196EDCFE2EFF2E08081F999CB
:10460000FECF1FBA32BD21BD80BD0FB6F894FA9A15
:10461000F99A0FBE2F5F3F4F283E310511F03196BA
:10462000EDCF80E290E09A838983FE01319680810C
:10463000F999FECF1FBA32BD21BD80BD0FB6F894E7
:10464000FA9AF99A0FBE2F5F3F4F2A3E310571F754
:10465000E5EDF6E08081F999FECF1FBA32BD21BDAC
:1046600080BD0FB6F894FA9AF99A0FBE2F5F3F4FAC
:104670002E3E310511F03196EDCFE0E9F2E0808178
:10468000F999FECF1FBA32BD21BD80BD0FB6F89497
:10469000FA9AF99A0FBE2F5F3F4F223F310511F072
:1046A0003196EDCFE9EDF6E08081F999FECF1FBAA2
:1046B00032BD21BD80BD0FB6F894FA9AF99A0FBEAB
:1046C0002F5F3F4F263F310511F03196EDCFE4E9E2
:1046D000F2E08081F999FECF1FBA32BD21BD80BDC5
:1046E0000FB6F894FA9AF99A0FBE2F5F3F4F2A3F00
:1046F000310511F03196EDCFEDEDF6E08081F999BD
:10470000FECF1FBA32BD21BD80BD0FB6F894FA9A14
:10471000F99A0FBE2F5F3F4F2E3F310511F03196B2
:10472000EDCFE8E9F2E08081F999FECF1FBA32BD02
:1047300021BD80BD0FB6F894FA9AF99A0FBE81E0B8
:104740002130380721F02F5F3F4F3196ECCF809119
:104750001A0190911B01A0911C01B0911D018F8342
:104760009887A987BA87FE01379684E690E0208172
:10477000F999FECF1FBA92BD81BD20BD0FB6F89446
:10478000FA9AF99A0FBE8736910519F0019631967B
:10479000EECFE0EEF2E064918F0108C086E092E196
:1047A0000E94FD130F5F1F4FF80164916623B1F75C
:1047B000E4E5F5E064918F0108C086E092E10E9493
:1047C000FD130F5F1F4FF80164916623B1F786E078
:1047D00092E16AE00E94FD132A960FB6F894DEBFBC
:1047E0000FBECDBFCF91DF911F910F910895EF9232
:1047F000FF920F931F93DF93CF93CDB7DEB7E09770
:104800000FB6F894DEBF0FBECDBFDE011196E1E416
:10481000F3E080E101900D928150E1F7DE015196C5
:10482000E1E3F3E080E101900D928150E1F7DE01D8
:104830009196E1E2F3E080E101900D928150E1F781
:1048400089819A81AB81BC818093C0089093C10813
:10485000A093C208B093C30889899A89AB89BC899F
:104860008093B0089093B108A093B208B093B308B6
:1048700089A19AA1ABA1BCA18093D0089093D10843
:10488000A093D208B093D3088D819E81AF81B88563
:104890008093C4089093C508A093C608B093C70836
:1048A0008D899E89AF89B88D8093B4089093B5089F
:1048B000A093B608B093B7088DA19EA1AFA1B8A5EB
:1048C0008093D4089093D508A093D608B093D708C6
:1048D00089859A85AB85BC858093C8089093C90863
:1048E000A093CA08B093CB08898D9A8DAB8DBC8DEF
:1048F0008093B8089093B908A093BA08B093BB0806
:1049000089A59AA5ABA5BCA58093D8089093D90892
:10491000A093DA08B093DB088D859E85AF85B889B2
:104920008093CC089093CD08A093CE08B093CF0885
:104930008D8D9E8DAF8DB8A18093BC089093BD08DE
:10494000A093BE08B093BF088DA59EA5AFA5B8A93A
:104950008093DC089093DD08A093DE08B093DF0815
:104960000E94766780E090E8ABE3B5E48093E408CA
:104970009093E508A093E608B093E7088093E808D1
:104980009093E908A093EA08B093EB080F2EF0E0AB
:10499000EF2EF0E0FF2EF0E00F2FF0E01F2FF02DB4
:1049A000E092E008F092E1080093E2081093E30837
:1049B00080E29EE4A0E0B0E08093AC089093AD0864
:1049C000A093AE08B093AF08E092F808F092F9080F
:1049D0000093FA081093FB0840E050E060EA71E4AD
:1049E0004093EC085093ED086093EE087093EF0845
:1049F0008DEC9CECACECBEE38093F0089093F10856
:104A0000A093F208B093F30880E090E0A0EAB0E44D
:104A10008093F4089093F508A093F608B093F708F4
:104A2000E092AB06F092AC060093AD061093AE0692
:104A3000E092A706F092A8060093A9061093AA0692
:104A4000E092A306F092A4060093A5061093A60692
:104A500084EB90E09093E4108093E31086E490E080
:104A60009093E6108093E5102FEF30E03093E8103C
:104A70002093E71080EF90E09093EA108093E91084
:104A800084E690E09093EC108093EB103093EE105E
:104A90002093ED1040939C0250939D0260939E02E0
:104AA00070939F02E092A002F092A1020093A202F2
:104AB0001093A302E092A402F092A5020093A60232
:104AC0001093A7028AE999E9A1EBB1E48093EA0285
:104AD0009093EB02A093EC02B093ED0261E77DE3CB
:104AE0008AE89FE30E9403966093EE027093EF02C0
:104AF0008093F0029093F10260E070E084EE92E423
:104B00000E9411966093F2027093F3028093F40274
:104B10009093F5020E94139580E090E0A0E8BFE337
:104B20008093F6029093F702A093F802B093F902F3
:104B3000E092D506F092D6060093D7061093D806D9
:104B4000E092D906F092DA060093DB061093DC06B9
:104B5000E092DD06F092DE060093DF061093E00699
:104B600080E090E0A8E1B3E48093900290939102FA
:104B7000A0939202B0939302809394029093950233
:104B8000A0939602B0939702809398029093990213
:104B9000A0939A02B0939B02E0EEF2E064918F0141
:104BA00008C086E092E10E94FD130F5F1F4FF801DD
:104BB00064916623B1F7E6EEF2E064918F0108C0DC
:104BC00086E092E10E94FD130F5F1F4FF801649190
:104BD0006623B1F786E092E16AE00E94FD13E09659
:104BE0000FB6F894DEBF0FBECDBFCF91DF911F91FE
:104BF0000F91FF90EF9008950F931F93CF93DF9342
:104C000000EE12E0F8016491E80107C086E092E14D
:104C10000E94FD132196FE0164916623B9F7E4E436
:104C2000F5E06491EF0107C086E092E10E94FD1378
:104C30002196FE0164916623B9F786E092E16AE06D
:104C40000E94FD13F8016491C0EED2E007C086E037
:104C500092E10E94FD132196FE0164916623B9F74B
:104C60004091C0085091C1086091C2087091C3087A
:104C70008CE395E00E9487354091C4085091C508A7
:104C80006091C6087091C70889E395E00E94873556
:104C90004091C8085091C9086091CA087091CB082A
:104CA00086E395E00E9487354091CC085091CD086D
:104CB0006091CE087091CF0883E395E00E9487351C
:104CC00086E092E16EE171E00E94731486E092E169
:104CD0006AE00E94FD13F8016491C0EED2E007C0C3
:104CE00086E092E10E94FD132196FE016491662305
:104CF000B9F7E9E1F5E06491EF0107C086E092E1E0
:104D00000E94FD132196FE0164916623B9F786E0A7
:104D100092E16AE00E94FD13F8016491C0EED2E0D6
:104D200007C086E092E10E94FD132196FE01649186
:104D30006623B9F74091B0085091B1086091B2086C
:104D40007091B30880E195E00E9487354091B408E6
:104D50005091B5086091B6087091B7088DE095E064
:104D60000E9487354091B8085091B9086091BA08FF
:104D70007091BB088AE095E00E9487354091BC089D
:104D80005091BD086091BE087091BF0887E095E022
:104D90000E94873586E092E16EE171E00E94731413
:104DA00086E092E16AE00E94FD13F8016491C0EE92
:104DB000D2E007C086E092E10E94FD132196FE0139
:104DC00064916623B9F7E9EEF4E06491EF0107C05E
:104DD00086E092E10E94FD132196FE016491662314
:104DE000B9F786E092E16AE00E94FD13F801649150
:104DF000C0EED2E007C086E092E10E94FD1321964A
:104E0000FE0164916623B9F74091D0085091D10812
:104E10006091D2087091D30880EE94E00E947F2DBB
:104E20004091D4085091D5086091D6087091D70868
:104E30008DED94E00E947F2D4091D8085091D908C3
:104E40006091DA087091DB088AED94E00E947F2D72
:104E50004091DC085091DD086091DE087091DF0818
:104E600087ED94E00E947F2D86E092E16EE171E093
:104E70000E94731486E092E16AE00E94FD13F8013B
:104E80006491C0EED2E007C086E092E10E94FD137B
:104E90002196FE0164916623B9F7E2EAF4E0649199
:104EA000EF0107C086E092E10E94FD132196FE010A
:104EB00064916623B9F786E092E16AE00E94FD13EF
:104EC000F8016491C0EED2E007C086E092E10E9452
:104ED000FD132196FE0164916623B9F74091E40821
:104EE0005091E5086091E6087091E70889E994E03F
:104EF0000E9487354091E8085091E9086091EA08DE
:104F00007091EB0886E994E00E94873586E092E193
:104F10006EE171E00E94731486E092E16AE00E9403
:104F2000FD13F8016491C0EED2E007C086E092E183
:104F30000E94FD132196FE0164916623B9F7E3EE0A
:104F4000F3E06491EF0107C086E092E10E94FD1357
:104F50002196FE0164916623B9F786E092E16AE04A
:104F60000E94FD13F8016491C0EED2E007C086E014
:104F700092E10E94FD132196FE0164916623B9F728
:104F80004091E0085091E1086091E2087091E308D7
:104F90008AED93E00E9487354091F8085091F90816
:104FA0006091FA087091FB0887ED93E00E948735C5
:104FB0004091AC085091AD086091AE087091AF0877
:104FC00084ED93E00E947F2D4091EC085091ED0814
:104FD0006091EE087091EF0881ED93E00E948735B3
:104FE0004091F0085091F1086091F2087091F30837
:104FF0008EEC93E00E9487354091F4085091F508BB
:105000006091F6087091F7088BEC93E00E94873569
:1050100086E092E16EE171E00E94731486E092E115
:105020006AE00E94FD13F8016491C0EED2E007C06F
:1050300086E092E10E94FD132196FE0164916623B1
:10504000B9F7E9EBF3E06491EF0107C086E092E184
:105050000E94FD132196FE0164916623B9F786E054
:1050600092E16AE00E94FD13F8016491C0EED2E083
:1050700007C086E092E10E94FD132196FE01649133
:105080006623B9F74091A3065091A4066091A50646
:105090007091A60680EB93E00E9487354091A706A9
:1050A0005091A8066091A9067091AA068DEA93E036
:1050B0000E9487354091AB065091AC066091AD06D9
:1050C0007091AE068AEA93E00E94873586E092E10D
:1050D0006EE171E00E94731486E092E16AE00E9442
:1050E000FD13F8016491C0EED2E007C086E092E1C2
:1050F0000E94FD132196FE0164916623B9F7ECE945
:10510000F3E06491EF0107C086E092E10E94FD1395
:105110002196FE0164916623B9F786E092E16AE088
:105120000E94FD13F8016491C0EED2E007C086E052
:1051300092E10E94FD132196FE0164916623B9F766
:105140004091EA025091EB026091EC027091ED0205
:1051500082E993E00E9487356091EE027091EF0240
:105160008091F0029091F1020E940A96AB01BC017D
:105170008FE893E00E9487356091F2027091F3020C
:105180008091F4029091F5020E941896AB01BC0147
:105190008CE893E00E94873586E092E16EE171E051
:1051A0000E94731486E092E16AE00E94FD13F80108
:1051B0006491C0EED2E007C086E092E10E94FD1348
:1051C0002196FE0164916623B9F7E9E7F3E0649163
:1051D000EF0107C086E092E10E94FD132196FE01D7
:1051E00064916623B9F786E092E16AE00E94FD13BC
:1051F000F8016491C0EED2E007C086E092E10E941F
:10520000FD132196FE0164916623B9F74091D506FE
:105210005091D6066091D7067091D80680E793E04A
:105220000E9487354091D9065091DA066091DB06DD
:105230007091DC068DE693E00E9487354091DD0693
:105240005091DE066091DF067091E0068AE693E0F9
:105250000E94873586E092E16EE171E00E9473144E
:1052600086E092E16AE00E94FD13F8016491C0EECD
:10527000D2E007C086E092E10E94FD132196FE0174
:1052800064916623B9F7E7E5F3E06491EF0107C0A5
:1052900086E092E10E94FD132196FE01649166234F
:1052A000B9F786E092E16AE00E94FD13F80164918B
:1052B000C0EED2E007C086E092E10E94FD13219685
:1052C000FE0164916623B9F74091900250919102DA
:1052D00060919202709193028EE493E00E94873570
:1052E00040919402509195026091960270919702BC
:1052F0008BE493E00E948735409198025091990287
:1053000060919A0270919B0288E493E00E94873535
:1053100086E092E16EE171E00E94731486E092E112
:105320006AE00E94FD13F8016491C0EED2E007C06C
:1053300086E092E10E94FD132196FE0164916623AE
:10534000B9F7E1E3F3E06491EF0107C086E092E191
:105350000E94FD132196FE0164916623B9F786E051
:1053600092E16AE00E94FD13F8016491C0EED2E080
:1053700007C086E092E10E94FD132196FE01649130
:105380006623B9F740919C0250919D0260919E0264
:1053900070919F0288E293E00E9487354091A002BD
:1053A0005091A1026091A2027091A30285E293E064
:1053B0000E9487354091A4025091A5026091A602F7
:1053C0007091A70282E293E00E94873586E092E125
:1053D0006EE171E00E94731486E092E16AE00E943F
:1053E000FD13DF91CF911F910F9108950F931F939C
:1053F000DF93CF93CDB7DEB72A970FB6F894DEBF11
:105400000FBECDBF80911A0190911B01A0911C018C
:10541000B0911D018F839887A987BA87FE013396C3
:1054200004E610E0F999FECF12BD01BDF89A80B5EF
:1054300080830F5F1F4F0836110511F03196F2CFB0
:10544000CE010796BE016D5F7F4F43E050E00E94A2
:105450003F11009709F017C2E0ECF8E0F999FECF90
:1054600012BD01BDF89A80B580830F5F1F4F0837CA
:10547000110511F03196F2CFE0EBF8E0F999FECF8B
:1054800012BD01BDF89A80B580830F5F1F4F0838A9
:10549000110511F03196F2CFE0EDF8E0F999FECF69
:1054A00012BD01BDF89A80B580830F5F1F4F083988
:1054B000110511F03196F2CF0E947667E4EEF8E024
:1054C000F999FECF12BD01BDF89A80B580830F5FB8
:1054D0001F4F0C39110511F03196F2CFE8EEF8E0CC
:1054E000F999FECF12BD01BDF89A80B580830F5F98
:1054F0001F4F003A110511F03196F2CFE0EEF8E0BF
:10550000F999FECF12BD01BDF89A80B580830F5F77
:105510001F4F043A110511F03196F2CFE8EFF8E091
:10552000F999FECF12BD01BDF89A80B580830F5F57
:105530001F4F083A110511F03196F2CFECEAF8E06E
:10554000F999FECF12BD01BDF89A80B580830F5F37
:105550001F4F0C3A110511F03196F2CFECEEF8E046
:10556000F999FECF12BD01BDF89A80B580830F5F17
:105570001F4F003B110511F03196F2CFE0EFF8E03C
:10558000F999FECF12BD01BDF89A80B580830F5FF7
:105590001F4F043B110511F03196F2CFE4EFF8E014
:1055A000F999FECF12BD01BDF89A80B580830F5FD7
:1055B0001F4F083B110511F03196F2CFE3EAF6E0F8
:1055C000F999FECF12BD01BDF89A80B580830F5FB7
:1055D0001F4F043C110511F03196F2CFE3EEF0E1DC
:1055E000F999FECF12BD01BDF89A80B580830F5F97
:1055F0001F4F063C110511F03196F2CFE5EEF0E1B8
:10560000F999FECF12BD01BDF89A80B580830F5F76
:105610001F4F083C110511F03196F2CFE7EEF0E193
:10562000F999FECF12BD01BDF89A80B580830F5F56
:105630001F4F0A3C110511F03196F2CFE9EEF0E16F
:10564000F999FECF12BD01BDF89A80B580830F5F36
:105650001F4F0C3C110511F03196F2CFEBEEF0E14B
:10566000F999FECF12BD01BDF89A80B580830F5F16
:105670001F4F0E3C110511F03196F2CFEDEEF0E127
:10568000F999FECF12BD01BDF89A80B580830F5FF6
:105690001F4F003D110511F03196F2CFECE9F2E019
:1056A000F999FECF12BD01BDF89A80B580830F5FD6
:1056B0001F4F043D110511F03196F2CFE0EAF2E000
:1056C000F999FECF12BD01BDF89A80B580830F5FB6
:1056D0001F4F083D110511F03196F2CFE4EAF2E0D8
:1056E000F999FECF12BD01BDF89A80B580830F5F96
:1056F0001F4F0C3D110511F03196F2CFEAEEF2E0AA
:10570000F999FECF12BD01BDF89A80B580830F5F75
:105710001F4F003E110511F03196F2CFEEEEF2E090
:10572000F999FECF12BD01BDF89A80B580830F5F55
:105730001F4F043E110511F03196F2CFE2EFF2E077
:10574000F999FECF12BD01BDF89A80B580830F5F35
:105750001F4F083E110511F03196F2CFFE01319630
:10576000F999FECF12BD01BDF89A80B580830F5F15
:105770001F4F0A3E110599F7E5EDF6E0F999FECFC6
:1057800012BD01BDF89A80B580830F5F1F4F0E3E9A
:10579000110511F03196F2CFE0E9F2E0F999FECF70
:1057A00012BD01BDF89A80B580830F5F1F4F023F85
:1057B000110511F03196F2CFE9EDF6E0F999FECF3F
:1057C00012BD01BDF89A80B580830F5F1F4F063F61
:1057D000110511F03196F2CFE4E9F2E0F999FECF2C
:1057E00012BD01BDF89A80B580830F5F1F4F0A3F3D
:1057F000110511F03196F2CFEDEDF6E0F999FECFFB
:1058000012BD01BDF89A80B580830F5F1F4F0E3F18
:10581000110511F03196F2CFE8E9F2E0F999FECFE7
:1058200012BD01BDF89A80B5808381E00130180770
:1058300021F00F5F1F4F3196F1CF0E941395E0EEDC
:10584000F2E064918F0108C086E092E10E94FD13AE
:105850000F5F1F4FF80164916623B1F7E8E0F3E0B2
:1058600064918F0108C086E092E10E94FD130F5FF2
:105870001F4FF80164916623B1F786E092E16AE078
:105880000E94FD1302C00E94F7230E94FC252A9665
:105890000FB6F894DEBF0FBECDBFCF91DF911F9141
:1058A0000F910895CF93DF930FB6F8948091FE1176
:1058B0009091FF11A0910012B09101120FBE809340
:1058C000EA069093EB06A093EC06B093ED06E09108
:1058D0001307F0911407EB5EF84F8081882399F449
:1058E000E9E1F6E06491EF0107C086E092E10E94F1
:1058F000FD132196FE0164916623B9F786E092E1DB
:105900006AE00E94FD13DF91CF910895EF92FF921C
:105910000F931F93CF93DF93EC01E090AF06F090CD
:10592000B0060091B1061091B206688179818A8132
:105930009B81A80197010E94F3E7882324F4E88261
:10594000F9820A831B83E090B306F090B4060091BD
:10595000B5061091B6066C817D818E819F81A8016C
:1059600097010E94F3E7882324F4EC82FD820E83E2
:105970001F83E090B706F090B8060091B906109129
:10598000BA06688579858A859B85A80197010E945A
:10599000F3E7882324F4E886F9860A871B87E090DA
:1059A0008202F09083020091840210918502688146
:1059B00079818A819B81A80197010E9401EA1816CA
:1059C00024F4E882F9820A831B83E0908602F09037
:1059D000870200918802109189026C817D818E81FD
:1059E0009F81A80197010E9401EA181624F4EC8215
:1059F000FD820E831F83E0908A02F0908B0200915B
:105A00008C0210918D02688579858A859B85A80115
:105A100097010E9401EA181624F4E886F9860A879D
:105A20001B87DF91CF911F910F91FF90EF90089509
:105A30008091D30608950F931F93CF93DF93813006
:105A4000910549F46F5F7F4F09F046C08CE094E008
:105A50000E94692041C0892B09F03EC06F5F7F4FD3
:105A6000D9F581E993E09093CB058093CA058091A5
:105A7000D005882321F08DEC95E00E94AF7EC7E829
:105A8000D5E001E913E005C06E9784E0CB35D80777
:105A900051F0198308838E818823B1F3CE010396D8
:105AA0000E94AF7EF1CF81E993E0998388838E8154
:105AB000882321F0CE0103960E94AF7E81E993E016
:105AC00090933C0480933B0480914104882321F00F
:105AD0008EE394E00E94AF7EDF91CF911F910F91F2
