:100000000C94000C0C942B0C0C942B0C0C942B0CBF
:100010000C942B0C0C942B0C0C942B0C0C942B0C84
:100020000C942B0C0C942B0C0C9451A70C941DA528
:100030000C942B0C0C942B0C0C942B0C0C942B0C64
:100040000C942B0C0C943B850C942B0C0C942B0CCB
:100050000C942B0C0C942B0C0C945C8E0C94E0A345
:100060000C942B0C0C942B0C0C942B0C0C942B0C34
:100070000C942B0C0C942B0C0C942B0C0C942B0C24
:100080000C942B0C0C942B0C0C942B0C0C942B0C14
:100090000C940CA00C942B0C084AD73B3BCE016E61
:1000A00084BCBFFDC12F3D6C74319ABD56833DDACF
:1000B0003D00C77F11BED9E4BB4C3E916BAAAABEDE
:1000C000000000803F05A84CCDB2D44EB93836A907
:1000D000020C50B9918688083CA6AAAA2ABE000044
:1000E00000803F4D383420582059205A2045006563
:1000F00063686F3A0043616E6E6F7420656E74655D
:1001000072207375626469723A20004D3234004D7A
:100110003233202573006175746F25692E670045A1
:1001200072726F723A006572726F722077726974C0
:10013000696E6720746F2066696C65004E6F74206D
:100140005344207072696E74696E67002F005344C7
:10015000207072696E74696E672062797465200020
:100160002E0044656C6574696F6E206661696C650C
:10017000642C2046696C653A200046696C652064F1
:10018000656C657465643A002E006F70656E20665C
:1001900061696C65642C2046696C653A2000577271
:1001A0006974696E6720746F2066696C653A200017
:1001B0002E006F70656E206661696C65642C204648
:1001C000696C653A20002E006F70656E206661696B
:1001D0006C65642C2046696C653A200046696C6544
:1001E0002073656C6563746564002053697A653AB1
:1001F000200046696C65206F70656E65643A20006A
:100200002E006F70656E206661696C65642C2046F7
:10021000696C653A20004E6F7720667265736820BE
:1002200066696C653A20004E6F7720646F696E676F
:100230002066696C653A20002220706F73002220CE
:10024000706172656E743A2200535542524F555494
:10025000494E452043414C4C207461726765743AA5
:100260002200747279696E6720746F2063616C6C10
:10027000207375622D67636F64652066696C6573B2
:10028000207769746820746F6F206D616E79206CBF
:100290006576656C732E204D4158206C6576656CD3
:1002A0002069733A0053442063617264206F6B00CD
:1002B0006F70656E526F6F74206661696C65640063
:1002C000766F6C756D652E696E6974206661696CF8
:1002D000656400534420696E6974206661696C002E
:1002E0006563686F3A0048617264636F6465642097
:1002F00044656661756C742053657474696E6773C8
:10030000204C6F616465640053746F726564207380
:10031000657474696E677320726574726965766559
:100320006400205A0020590020204D3231322058DC
:10033000004265642070726F6265206F6666736547
:100340007420286D6D293A00205A00205900202081
:100350004D3231312058004D617820706F736974CF
:10036000696F6E20286D6D293A00205A00205900CF
:1003700020204D3231302058004D696E20706F734F
:100380006974696F6E20286D6D293A002044002041
:1003900049002020204D3330312050005049442066
:1003A00073657474696E67733A00205A00205900AF
:1003B00020204D323036205800486F6D65206F6622
:1003C0006673657420286D6D293A00204500205A17
:1003D0000020580020420020540020204D323035AB
:1003E000205300416476616E6365642076617269B2
:1003F00061626C65733A20533D4D696E2066656598
:10040000647261746520286D6D2F73292C20543D12
:100410004D696E2074726176656C206665656472E4
:1004200061746520286D6D2F73292C20423D6D6904
:100430006E696D756D207365676D656E7420746986
:100440006D6520286D73292C20583D6D6178696D8C
:10045000756D205859206A65726B20286D6D2F7359
:10046000292C20205A3D6D6178696D756D205A20C8
:100470006A65726B20286D6D2F73292C2020453DF5
:100480006D6178696D756D2045206A65726B2028F5
:100490006D6D2F73290020540020204D3230342000
:1004A0005300416363656C65726174696F6E3A20D5
:1004B000533D616363656C65726174696F6E2C2076
:1004C000543D7265747261637420616363656C6529
:1004D000726174696F6E00204500205A0020590037
:1004E00020204D3230312058004D6178696D756D96
:1004F00020416363656C65726174696F6E20286D5D
:100500006D2F7332293A00204500205A00205900EF
:1005100020204D3230332058004D6178696D756D63
:100520002066656564726174657320286D6D2F7334
:10053000293A00204500205A0020590020204D393A
:100540003220580053746570732070657220756E88
:1005500069743A0053657474696E67732053746FDD
:10056000726564006563686F3A004572726F723A33
:10057000005072696E7465722073746F7070656478
:100580002064756520746F206572726F72732E20FF
:1005900046697820746865206572726F7220616E9A
:1005A0006420757365204D39393920746F20726568
:1005B00073746172742E202854656D706572617455
:1005C0007572652069732072657365742E2053659A
:1005D0007420697420616674657220726573746139
:1005E0007274696E6729005072696E746572206852
:1005F000616C7465642E206B696C6C2829206361C2
:100600006C6C656421006F6B00526573656E643AB3
:1006100020002200556E6B6E6F776E20636F6D6DDC
:10062000616E643A202200655F6D61783A20006552
:100630005F6D696E3A20007A5F6D696E3A200079CD
:100640005F6D61783A2000785F6D696E3A20005ADC
:100650003A00593A0020436F756E7420583A2000D2
:10066000453A005A3A00593A00583A002053455248
:1006700049414C5F4E554D4245523A200020455865
:100680005452554445525F434F554E543A20002032
:100690004D414348494E455F545950453A2000204A
:1006A00050524F544F434F4C5F56455253494F4E53
:1006B0003A2000204649524D574152455F55524C11
:1006C0003A20004649524D574152455F4E414D45F3
:1006D0003A204D61726C696E2056310020423A001A
:1006E00020453A00543A0020573A0020453A005439
:1006F0003A002042403A0020403A00202F003A00C1
:10070000205400202F0020423A00202F006F6B2041
:10071000543A002569206D696E2C20256920736587
:100720006300456E642066696C65206C69737400B3
:10073000426567696E2066696C65206C6973740038
:100740000A00205A3A200020593A200042656420CD
:10075000506F736974696F6E20583A20000A002048
:100760007A3A200020793A200042656420783A20C5
:10077000000A00207A3A200020793A20004265647D
:1007800020783A20000A00207A3A200020793A2086
:100790000042656420783A20005A50726F626520EA
:1007A0004F7574736964652042656400486F6D65B8
:1007B00020582F59206265666F7265205A00FF012C
:1007C000FF0000A0400000A0400000803F256920FD
:1007D000686F757273202569206D696E7574657315
:1007E00000446F6E65207072696E74696E67206672
:1007F000696C65005072696E7465722073746F70F5
:100800007065642064756520746F206572726F7204
:10081000732E2046697820746865206572726F7245
:1008200020616E6420757365204D39393920746FED
:1008300020726573746172742E202854656D706522
:100840007261747572652069732072657365742EA8
:100850002053657420697420616674657220726526
:100860007374617274696E6729006F6B004E6F203C
:100870004C696E65204E756D62657220776974688B
:1008800020636865636B73756D2C204C61737420F5
:100890004C696E653A20004E6F20436865636B7348
:1008A000756D2077697468206C696E65206E756D52
:1008B0006265722C204C617374204C696E653A201D
:1008C00000636865636B73756D206D69736D61742A
:1008D00063682C204C617374204C696E653A20006B
:1008E0004C696E65204E756D626572206973206E6D
:1008F0006F74204C617374204C696E65204E756D69
:100900006265722B312C204C617374204C696E65CA
:100910003A20004D31313000446F6E6520736176AE
:10092000696E672066696C652E006F6B004D323909
:10093000002020506C616E6E65724275666665724D
:1009400042797465733A20002046726565204D65D2
:100950006D6F72793A20004D617920323620323045
:10096000313600436F6D70696C65643A20005072D7
:10097000696E7472626F7400207C20417574686FB8
:10098000723A20004D6179203236203230313620E3
:1009900031343A31333A343000204C61737420558D
:1009A0007064617465643A2000312E302E30004D41
:1009B00061726C696E200020536F66747761726596
:1009C00020526573657400205761746368646F67B3
:1009D000205265736574002042726F776E206F75C8
:1009E00074205265736574002045787465726E6179
:1009F0006C20526573657400506F77657255700096
:100A00007374617274002200656E717565696E673A
:100A10002022002200656E717565696E67202200D4
:100A20006563686F3A0020746F6F206C6F6E67208B
:100A3000657874727573696F6E2070726576656E15
:100A40007465640020636F6C6420657874727573DC
:100A5000696F6E2070726576656E746564007C3CAB
:100A60003E5E2B3D3F2F5B5D3B2C2A225C004531D7
:100A70003A200045303A20005A3A2000593A2000E6
:100A8000583A20004D53312C4D53322050696E732B
:100A90000A006563686F3A0028002920453A00285B
:100AA0000029205A3A0028002920593A002800201D
:100AB000583A005374657070657220637572726580
:100AC0006E742076616C756573205B252872617782
:100AD000295D3A0024F404D9201BC40C5C0E980450
:100AE000C4095F0265077101F405F900FB04B30056
:100AF00048048700C10369005803550003034500FB
:100B0000BE023A008402310053022A002902250065
:100B100004022000E4011C00C8011900AF01170005
:100B2000980114008401130071011000610110008C
:100B300051010E0043010D0036010B002B010B008B
:100B400020010B00150109000C0109000301080038
:100B5000FB000800F3000800EB000700E4000600BB
:100B6000DE000600D8000600D2000600CC0005001A
:100B7000C7000500C2000500BD000400B900040064
:100B8000B5000400B1000400AD000400A900040099
:100B9000A5000300A20003009F0004009B000300C7
:100BA00098000300950002009300030090000300EA
:100BB0008D0002008B000300880002008600020006
:100BC00084000300810002007F0002007D0002001B
:100BD0007B0002007900020077000100760002002D
:100BE0007400020072000100710002006F00020038
:100BF0006D0001006C0002006A0001006900020043
:100C00006700010066000100650001006400020049
:100C10006200010061000100600001005F0002004D
:100C20005D0001005C0001005B0001005A00010052
:100C30005900010058000100570001005600010052
:100C40005500010054000100530000005300010052
:100C50005200010051000100500001004F0001004E
:100C60004E0000004E0001004D0001004C0001004C
:100C70004B0000004B0001004A0001004900010048
:100C80004800000048000100470001004600000045
:100C9000460001004500000045000100440001003D
:100CA0004300000043000100420000004200010038
:100CB0004100000041000100400001003F00000031
:100CC0003F0001003E0000003E0001003D0000002A
:100CD0003D0001003C0000003C0000003C00010021
:100CE0003B0000003B0001003A0000003A00010018
:100CF0003900000039000100380000003800000011
:100D00003800010037000000370001003600000005
:100D100036000000360001003500000035000000FC
:100D200035000100340000003400000034000100F0
:100D300033000000330000003300010032000000E7
:100D400032000000320001003100000031000000DC
:100D500031000100300000003000000030000100D0
:100D60002F0000002F0000002F0000002F000100C6
:100D70002E0000002E0000002E0001002D000000BB
:100D80002D0000002D0000002D0001002C000000AF
:100D90002C0000002C0000002C0001002B000000A3
:100DA0002B0000002B0000002B0001002A00000097
:100DB0002A0000002A0000002A000100290000008B
:100DC000290000002900000029000000290001007E
:100DD0002800000028000000280000002800000073
:100DE0002800010027000000270000002700000065
:100DF0002700000027000100260000002600000058
:100E0000260000002600000026000100250000004A
:100E1000250000002500000025000000250000003E
:100E20002500010024000000240000002400000030
:100E30002400000024000100230000002300000023
:100E40002300000023000000230000002300000016
:100E50002300010022000000220000002200000008
:100E600022000000220000002200010021000000FA
:100E700021000000210000002100000021000000EE
:100E800021000000210001002000000020000000DF
:100E900020000000200000002000000020000000D2
:100EA00020000000200001001F0000001F000000C3
:100EB0001F0000001F0000001F0000001F000000B6
:100EC0001F0001001E0000001E0000001E000000A8
:100ED0001E00000024F4D43050C38E20C2A240175C
:100EE000828B7011127A910D816CD90AA861E10888
:100EF000C7586607615143061E4B5D05C145A704EF
:100F00001A411104093D9803713931034036DB025F
:100F100065339102D4305402802E1D02632CEE0101
:100F2000752AC501B028A001102781018F25640111
:100F30002B244B01E0223401AC211F018D200D0137
:100F4000801FFC00841EED00971DDF00B81CD2003E
:100F5000E61BC600201BBC00641AB200B219A80030
:100F60000A19A0006A189900D117910040178B0048
:100F7000B516840031167E00B31579003A1573005A
:100F8000C7146F0058146A00EE13660088136300DC
:100F900025135E00C7125B006C1257001512540037
:100FA000C111510070114F0021114B00D6104900A2
:100FB0008D1047004610440002104200C00F400050
:100FC000800F3E00420F3C00060F3B00CB0E380066
:100FD000930E37005C0E3500270E3400F30D3200FF
:100FE000C10D3100900D3000600D2E00320D2D002E
:100FF000050D2C00D90C2B00AE0C2900850C290006
:101000005C0C2700350C27000E0C2600E80B240092
:10101000C40B2400A00B23007D0B23005A0B2100DE
:10102000390B2100180B2000F80A1F00D90A1E00F6
:10103000BB0A1E009D0A1D00800A1D00630A1C00D9
:10104000470A1B002C0A1B00110A1A00F7091A0094
:10105000DD091900C4091900AB091900920917002C
:101060007B091800630917004C09160036091600A1
:10107000200916000A091500F5081500E0081400FB
:10108000CC081400B8081400A40814009008130039
:101090007D0812006B081300580812004608120061
:1010A0003408110023081100120811000108110072
:1010B000F0071000E0071000D0071000C007100074
:1010C000B0070F00A107100091070E0083070F0063
:1010D00074070F0065070E0057070E0049070E0042
:1010E0003B070D002E070E0020070D0013070D0013
:1010F00006070D00F9060C00ED060D00E0060C00D9
:10110000D4060C00C8060C00BC060C00B0060C008F
:10111000A4060B0099060C008D060B0082060B003E
:1011200077060B006C060B0061060A0057060B00E1
:101130004C060A0042060A0038060A002E060A007B
:1011400024060A001A060A001006090007060A000B
:10115000FD050900F4050900EB050900E205090099
:10116000D9050900D0050900C7050900BE05090019
:10117000B5050800AD050800A50509009C05080097
:10118000940508008C050800840508007C0508000B
:10119000740508006C050700650508005D0507007B
:1011A000560508004E0507004705070040050800E2
:1011B00038050700310507002A0507002305070049
:1011C0001C050600160507000F05070008050600A8
:1011D00002050700FB040600F5040700EE04060004
:1011E000E8040600E2040700DB040600D50406005C
:1011F000CF040600C9040600C3040600BD040600AF
:10120000B7040600B1040500AC040600A6040600FD
:10121000A00405009B040600950405009004060048
:101220008A04050085040500800406007A04050090
:1012300075040500700405006B04050066040500D4
:10124000610405005C040500570405005204050014
:101250004D04050048040500430405003E04040055
:101260003A04050035040500300404002C04050090
:1012700027040400230405001E0404001A040400CB
:1012800016040500110404000D04040009040500FF
:101290000404040000040400FC030400F803040038
:1012A000F4030400F0030400EC030400E80304006A
:1012B000E4030400E0030400DC030400D80304009A
:1012C000D4030400D0030400CC030400C8030300CB
:1012D000C503030020453A00205A3A0020593A003D
:1012E00020583A00656E6473746F70732068697477
:1012F0003A20004572726F723A0054656D706572E3
:1013000061747572652068656174656420626564E6
:10131000207377697463686564206F66662E204D5C
:10132000415854454D502074726967676572656411
:10133000202121003A20457874727564657220730B
:1013400077697463686564206F66662E204D494E28
:1013500054454D5020747269676765726564202139
:10136000003A2045787472756465722073776974E9
:1013700063686564206F66662E204D415854454D64
:101380005020747269676765726564202100202DA2
:1013900020496E76616C6964206578747275646545
:1013A00072206E756D6265722021001000AD0330F1
:1013B000016A0150022B0170030A019004F500B08C
:1013C00005E500D006D800F007CE001009C50030B2
:1013D0000ABE00500BB700700CB100900DAB00B00E
:1013E0000EA600D00FA200F0109D00101299003040
:1013F0001395005014920070158E0090168B00B05B
:10140000178700D0188400F0198100101B7E00306F
:101410001C7B00501D7900701E7600901F7300B079
:10142000207000D0216E00F0226B00102469003083
:10143000256600502663007027610090285E00B08A
:10144000295C00D02A5900F02B5600102D54003092
:101450002E5100502F4E0070304B0090314800B09C
:10146000324500D0334200F0343E0010363B0030AD
:101470003737005038330070392E00903A2900B0C9
:101480003B2300D03C1B00F03D1100103F0100F059
:101490003F0000504944204175746F74756E65209B
:1014A00066696E697368656421205075742074687C
:1014B00065204B702C204B6920616E64204B6420AA
:1014C000636F6E7374616E747320696E746F204302
:1014D0006F6E66696775726174696F6E2E68005011
:1014E0004944204175746F74756E65206661696C3E
:1014F0006564212074696D656F75740020403A0041
:101500006F6B20543A006F6B20423A0050494420E0
:101510004175746F74756E65206661696C656421D0
:101520002054656D706572617475726520746F6F9B
:10153000206869676800204B643A2000204B693AB4
:101540002000204B703A200020436C6173696320B7
:1015500050494420002054753A2000204B753A2011
:1015600000206D61783A2000206D696E3A200020DD
:10157000643A200020626961733A200070012C01F6
:1015800090012701B0012201C0011D01F0011801E5
:101590001002130130020E016002090190020401E1
:1015A000C002FF000003FA004003F5008003F000D2
:1015B000D003EB002004E6007004E100E004DC004E
:1015C0004005D700C005D2004006CD00D006C800B7
:1015D0008007C3003008BE00F008B900C009B4009D
:1015E000B00AAF00B00BAA00D00CA500000EA000FE
:1015F000500F9B00C01096005012910000148C00F8
:10160000C0158700B0178200B0197D00D01B78008C
:10161000001E730040206E0090226900F0246400D8
:1016200040275F0090295A00E02B5500102E5000F3
:1016300020304B0010324600E033410090353C0032
:101640001037370070383200A0392D00B03A28002A
:10165000A03B2300603C1E00103D1900903D14008B
:10166000103E0F00703E0A00C03E0500003F000023
:101670000129022904290829102920294029802923
:10168000012C022C012602260426082610262026DC
:1016900040268026402C802C01230223042308238B
:1016A000102320234023802301200220042008202F
:1016B0001020202040208020102C202C012F022FD1
:1016C000042F082F102F202F402F802F7EFE7EFD0D
:1016D0007EFB7EF77EEF7EDF7EBF7E7F0001000017
:1016E00010171200020000221743000300006517C4
:1016F0000401030904691714020309047F17220374
:10170000030904A317160001C102018036018136C6
:1017100012010002020000207429100600010102DB
:10172000030109024300020100C032090400000164
:101730000202010005240010010524010001042417
:10174000020605240600010705820308004009047B
:101750000100020A0000000705030240000007051F
:10176000840240000004030904140350007200695D
:10177000006E007400720062006F007400000022AE
:10178000035000720069006E007400720062006F06
:101790000074002000530069006D0070006C00654B
:1017A00000000016033100320033003400350036EB
:1017B0000037003800390030000000494E46494EDD
:1017C0004954594E414ECDCCCC3D0AD7233C17B796
:1017D000D13877CC2B329595E6241FB14F0A000003
:1017E00020410000C84200401C4620BCBE4CCA1B21
:1017F0000E5AAEC59D74F92860838A9E12ABF228FA
:1018000011241FBECFEFD0E2DEBFCDBF13E0A0E0BA
:10181000B1E0E0EFF1E601E00BBF02C007900D92EE
:10182000A63AB107D9F71BBE11E1A6EAB3E001C0A1
:101830001D92A735B107E1F717E1CEEFD7E104C05C
:101840002297FE010E949DB0C63FD107C9F70E94B2
:10185000D0A70C94EBB00C940000A0E0B0E0E3E360
:10186000FCE00C94BAB0EC015B016115710519F054
:10187000FB0191838083F9908F2D90E00E94A1B0AD
:10188000892BC9F7FDE2FF1621F4F990EE24E394C9
:1018900005C02BE2F21609F4F990EE248E010150F6
:1018A0001040C8016BEB77E143E050E00E94C30EAB
:1018B000892B01F58E010E5F1F4FC8016EEB77E19A
:1018C00045E050E00E94C30E892B19F48E01095F98
:1018D0001F4FA114B10419F0F50111830083E0FC3E
:1018E00004C070E090E080E814C070E090E080E810
:1018F0006FEF08C1C80163EC77E143E050E00E945C
:10190000C30E892B69F4A114B10429F470E090E0AE
:1019100080EC6FE7F7C02296F501D183C083F6CF44
:101920008824992440E050E060E070E0EF2DE0531F
:10193000EA30A0F5F2E0EF2A8E2D90E09C012870AD
:101940003070E2FE06C0232B79F50894811C911CAF
:101950002BC0232B19F0089481089108DB01CA01E0
:1019600012E0880F991FAA1FBB1F1A95D1F7480FC5
:10197000591F6A1F7B1F440F551F661F771F4E0F8D
:10198000511D611D711D483929E9520729E9620776
:1019900029E1720748F084E0E82A06C0EE3F31F4FE
:1019A000E3FC39C098E0E92AF990C0CFE53311F0A3
:1019B000E53189F529912D3219F4E0E1EE2A05C0CF
:1019C0002B3219F081E090E003C0299182E090E091
:1019D000E22FE053EA3018F0C81BD90B1CC020E0FE
:1019E00030E0FCE020383F075CF4C901880F991F04
:1019F000880F991F280F391F220F331F2E0F311DFB
:101A0000E991E053EA3068F3E4FE03C03095219594
:101A10003F4F820E931ECE2CDD24E1FE07C0A114A1
:101A2000B10421F02197F501D183C083CB01BA0124
:101A30000E9406AD7B018C01F3E0CF22DD2423E080
:101A4000C216D10421F417FB109517F91095570110
:101A50006801C801B70120E030E040E050E00E949A
:101A600066AC882309F44AC097FE0DC02AEDE22E29
:101A700027E1F22E9094819491089394C0E2D0E0F3
:101A800000E010E012C092EFE92E97E1F92EF6CFB8
:101A9000F7012591359145915491C601B5010E94F8
:101AA00046AF5B016C018C1A9D0A8C169D0684F76B
:101AB000D595C7950F5F1F4F0630110529F08CEFA4
:101AC0009FEFE80EF91EF1CFC501D6017C018D0113
:101AD0008C2D880F8D2D881F8F3F51F0C601B501C9
:101AE00020E030E040E050E00E9466AC882331F412
:101AF00082E290E090935611809355117E2D9F2D98
:101B0000802F612F272F392F482F562FB901CA0157
:101B1000CDB7DEB7ECE00C94D6B02F923F925F9237
:101B20006F927F928F929F92AF92BF92CF92DF92ED
:101B3000EF92FF920F931F93CF93DF938C011B01C2
:101B4000EA016115710519F0FB01918380832097EB
:101B500049F0CE010297839728F020E030E040E082
:101B600050E0F6C0F801A1908F018A2D90E00E940C
:101B7000A1B0892BB9F7FDE2AF1631F4F801A190BD
:101B80008F015524539407C0FBE2AF1619F4F801F6
:101B9000A1908F015524209719F0C031D105C1F4CF
:101BA000F0E3AF1679F4F8018081883711F08835B9
:101BB00049F4F801A1800E5F1F4FF2E05F2AC0E1F7
:101BC000D0E006C0209721F480E3A816E9F427C0EE
:101BD000C830D10531F1C930D10524F4C230D10566
:101BE00031F50CC0CA30D10589F0C031D105F9F406
:101BF000C12CD12CE12CB8E0FB2E28C0C12CD12C5B
:101C0000E12CA0E4FA2E22C0CAE0D0E0FCECCF2EFA
:101C1000FCECDF2EFCECEF2EFCE0FF2E17C0C8E042
:101C2000D0E0C12CD12CE12CE0E1FE2E0FC09E01B2
:101C3000442737FD4095542F60E070E080E090E845
:101C40000E945EB0C901DA016C017D0120E030E044
:101C500040E050E060E03E01882477FC8094982CBE
:101C600070EDB72EBA0CE9E0EB1570F48A2D8154B3
:101C70008A3118F499ECB92E06C08A2D81568A3122
:101C800050F589EAB82EBA0C8B2D90E08C179D0781
:101C900014F56F3FE1F0C216D306E406F506B0F086
:101CA000CA01B901A40193010E9418B09B01AC01C3
:101CB0002B0D311D411D511D2130F0E03F07F0E09B
:101CC0004F07F0E85F0710F461E001C06FEFF80123
:101CD000A1908F01C5CF2114310481F0662331F02A
:101CE00001501040F1011183008308C051FE1AC059
:101CF00002501040F1011183008314C067FF12C02D
:101D000050FC05C02FEF3FEF4FEF5FE704C020E02E
:101D100030E040E050E882E290E0909356118093EA
:101D2000551116C050FE08C050954095309521952C
:101D30003F4F4F4F5F4F0CC057FF0AC082E290E009
:101D400090935611809355112FEF3FEF4FEF5FE7C0
:101D5000B901CA01DF91CF911F910F91FF90EF90D0
:101D6000DF90CF90BF90AF909F908F907F906F90BB
:101D70005F903F902F900895FB01DC0105900D923C
:101D80000020E1F70895FB01DC014150504088F04C
:101D90008D9181341CF08B350CF4805E659161343B
:101DA0001CF06B350CF4605E861B611171F3990BAE
:101DB0000895881BFCCFFB0155915523A9F0BF0165
:101DC000DC014D9145174111E1F759F4CD01059022
:101DD000002049F04D9140154111C9F3FB0141111B
:101DE000EFCF81E090E001970895FB01DC0104C092
:101DF0008D910190801921F441505040C8F7881B03
:101E0000990B0895FB01DC0102C001900D92415035
:101E10005040D8F70895FB01DC010D900020E9F750
:101E2000119701900D920020E1F70895FC01819136
:101E3000861721F08823D9F7992708953197CF0184
:101E40000895FB01DC0101900D920020E1F7089557
:101E5000FB01DC014150504030F08D910190801920
:101E600019F40020B9F7881B990B0895FB01DC01D8
:101E70004150504048F001900D920020C9F701C038
:101E80001D9241505040E0F70895AEE0B0E0EBE421
:101E9000FFE00C94C2B00D891E898EE08C831A83FA
:101EA00009838FEF9FE79E838D839E01275E3F4FBF
:101EB000CE0101966F89788DA9010E94690F2F814B
:101EC0003885020F131FF80110822E96E4E00C945F
:101ED000DEB0ABE0B0E0EFE6FFE00C94B4B03C0164
:101EE0002B015A01FC0117821682838181FD03C0F8
:101EF0006FEF7FEFC6C19AE0892E1E010894211C66
:101F0000311CF3012381F20123FD859123FF81918F
:101F10002F01882309F4B2C1853239F423FD85915C
:101F200023FF81912F01853229F490E0B3010E94B3
:101F30005C11E7CF982FFF24EE249924FFE1FF15D1
:101F4000D0F09B3269F09C3228F4903259F09332F1
:101F500091F40EC09D3249F0903369F441E024C001
:101F600052E0F52A84E0F82A28C098E0F92A25C032
:101F7000E0E1FE2A22C0F7FC29C0892F80538A3075
:101F800070F4F6FE05C0989C902C1124980E15C094
:101F9000E89CE02C1124E80EF0E2FF2A0EC09E32ED
:101FA00029F4F6FC6BC140E4F42A07C09C3619F40E
:101FB00050E8F52A02C0983649F4F20123FD9591C4
:101FC00023FF91912F01992309F0B8CF892F8554D0
:101FD000833018F08052833038F444E050E0A40E8F
:101FE000B51E5FE359830FC0933631F0933779F014
:101FF000933509F056C020C0F5018081898342E005
:1020000050E0A40EB51E610101E010E012C0F50120
:10201000C080D180F6FC03C06FEF7FEF02C0692D56
:1020200070E042E050E0A40EB51EC6010E945111BE
:102030008C015FE7F52214C0F501C080D180F6FC69
:1020400003C06FEF7FEF02C0692D70E042E050E007
:10205000A40EB51EC6010E9446118C0150E8F52A57
:10206000F3FE07C01AC080E290E0B3010E945C1149
:10207000EA948E2D90E008171907A8F30EC0F60118
:10208000F7FC8591F7FE81916F0190E0B3010E940A
:102090005C11E110EA94015010400115110579F727
:1020A000EAC0943611F0993669F5F7FE08C0F501DB
:1020B000208131814281538184E090E00AC0F501A2
:1020C000808191819C01442737FD4095542F82E007
:1020D00090E0A80EB91E9FE6F92257FF09C050955F
:1020E0004095309521953F4F4F4F5F4FE0E8FE2AD6
:1020F000CA01B901A1012AE030E00E948811D82E5E
:10210000D21840C0953729F41F2D1F7E2AE030E0F9
:102110001DC01F2D197F9F3661F0903720F4983530
:1021200009F0ACC00FC0903739F0983709F0A6C05D
:1021300004C028E030E00AC0106114FD146020E102
:1021400030E004C014FD166020E132E017FF08C043
:10215000F501608171818281938144E050E008C083
:10216000F50180819181BC0180E090E042E050E087
:10217000A40EB51EA1010E948811D82ED2188FE797
:10218000F82EF122F6FE0BC05EEFF522D91438F4DA
:10219000F4FE07C0F2FC05C08FEEF82202C01D2D30
:1021A00001C0192DF4FE0DC0FE01ED0DF11D808161
:1021B000803319F499EEF92208C01F5FF2FE05C0C2
:1021C00003C08F2D867809F01F5F0F2DF3FC14C01C
:1021D000F0FE0FC01E1510F09D2C0BC09D2C9E0C08
:1021E000911A1E2D06C080E290E0B3010E945C119E
:1021F0001F5F1E15C0F304C01E1510F4E11A01C0C4
:10220000EE2404FF0FC080E390E0B3010E945C1154
:1022100002FF1DC001FD03C088E790E00EC088E505
:1022200090E00BC0802F867891F001FF02C08BE216
:1022300001C080E2F7FC8DE290E0B3010E945C11E6
:1022400006C080E390E0B3010E945C119A94D91417
:10225000C0F3DA94F101ED0DF11D808190E0B3013E
:102260000E945C11DD20A9F706C080E290E0B30176
:102270000E945C11EA94EE20C1F743CEF30166811F
:102280007781CB012B96E2E10C94D0B0FC01059054
:10229000615070400110D8F7809590958E0F9F1F68
:1022A0000895FC016150704001900110D8F78095AD
:1022B00090958E0F9F1F08950F931F93CF93DF93D9
:1022C0008C01EB018B8181FF1BC082FF0DC02E8131
:1022D0003F818C819D812817390764F4E881F98159
:1022E0000193F983E88306C0E885F985802F099575
:1022F000892B31F48E819F8101969F838E8302C04A
:102300000FEF1FEFC801DF91CF911F910F9108953B
:10231000FA01AA27283051F1203181F1E8946F9316
:102320006E7F6E5F7F4F8F4F9F4FAF4FB1E03ED0BC
:10233000B4E03CD0670F781F891F9A1FA11D680F5A
:10234000791F8A1F911DA11D6A0F711D811D911D8D
:10235000A11D20D009F468943F912AE0269F112402
:102360003019305D3193DEF6CF010895462F477066
:10237000405D4193B3E00FD0C9F7F6CF462F4F70C1
:10238000405D4A3318F0495D31FD4052419302D01F
:10239000A9F7EACFB4E0A6959795879577956795C5
:1023A000BA95C9F700976105710508959B01AC01C5
:1023B0000A2E06945795479537952795BA95C9F7EC
:1023C000620F731F841F951FA01D0895DF93CF9385
:1023D0000F92CDB7DEB7FC016983A081B18112965F
:1023E0002D913C911397BE016F5F7F4F41E050E00C
:1023F000F90109950F90CF91DF910895FC011282A8
:1024000013820895FC018381882311F081E0828387
:102410000895FC018281811112820895FC0186E7F2
:1024200093E0918380838681882321F0CF010396F6
:102430000E946D750895CF93DF93DB010D9000200E
:10244000E9F71197A61BB70BEC01E881F98102802F
:10245000F381E02DAD010995DF91CF910895EF92C1
:10246000FF920F931F938C01E1ECEE2EE1E0FE2E24
:10247000E80EF91EC7010E941D75C7010E946D7507
:10248000F801108211821F910F91FF90EF90089533
:10249000CF92DF92EF92FF920F931F93CF93DF9330
:1024A0007C016B01DB010D900020E9F78D010150EB
:1024B0001040061B170BE1ECF1E0EE0EFF1ED701FA
:1024C0001C92EFE3FEEFEE0EFF1ECB016EE470E018
:1024D0000E94160FEC01009731F4F8013197EC0DD2
:1024E000FD1D86010EC060E270E00E94160F8C0197
:1024F0000F5F1F4FCE016AE270E00E94160FFC01D1
:1025000031978DE081838AE082831382C7018254F0
:102510009E4FB8010E947D7D81EC91E0E80EF91E8E
:10252000D7018C91882309F1EFE1F1E06491EF018B
:1025300007C08BE491E10E94E6112196FE016491AF
:102540006623B9F7E6E2F1E06491EF0107C08BE49E
:1025500091E10E94E6112196FE0164916623B9F78C
:102560008BE491E16AE00E94E611DF91CF911F9127
:102570000F91FF90EF90DF90CF900895EF92FF9230
:102580000F93CF93DF937C01FC018381882309F4AF
:102590003FC0EEE4F1E06491EF0107C08BE491E10C
:1025A0000E94E6112196FE0164916623B9F786E741
:1025B00092E0E80EF91EF70140815181628173813A
:1025C0008AE89DEFE80EF91E8BE491E12AE000E035
:1025D0000E941DA8ECE4F1E06491EF0107C08BE4D8
:1025E00091E10E94E6112196FE0164916623B9F7FC
:1025F0008EE692E0E80EF91EF7014081518162817A
:1026000073818BE491E12AE000E00E941DA80EC0D6
:10261000ECE3F1E06491EF0107C08BE491E10E94EB
:10262000E6112196FE0164916623B9F78BE491E1EE
:102630006AE00E94E611DF91CF910F91FF90EF9039
:1026400008952F923F924F925F926F927F928F9256
:102650009F92AF92BF92CF92DF92EF92FF920F9331
:102660001F93DF93CF93CDB7DEB7AB970FB6F89438
:10267000DEBF0FBECDBF5C014B01FC01838188230F
:1026800009F41AC1C5018F539E4F0E946D75F50163
:102690001282198A1C8A188A86E793E09F878E87A0
:1026A000ADE4CA2ED12CCA0CDB1C2FE230E0A20E06
:1026B000B31EF601B182A08221ED3FEFA20EB31E40
:1026C000F40180818F3209F081C0C4016FE270E0B3
:1026D0000E94160F7C010894E11CF11C3E01089435
:1026E000611C711C2601F1E12F2E312C2C0E3D1E98
:1026F00068C0C7016FE270E00E94160F6C0100977E
:1027000009F472C0E816F90608F06EC08C010E19C3
:102710001F09C301B701A8010E94360F060D171D3E
:10272000F80110828BE491E1B3010E941B128BE44B
:1027300091E16AE00E94E611F20160817181611508
:10274000710519F460E070E002C06D5F7F4FC10158
:10275000A30121E00E947B7C882341F5EAE8F1E0B7
:1027600064917F0109C08BE491E10E94E611089415
:10277000E11CF11CF70164916623A9F78BE491E158
:10278000BE016F5F7F4F0E941B12E8E8F1E0649189
:102790007F0109C08BE491E10E94E6110894E11CDD
:1027A000F11CF70164916623A9F77DC02EE030E0AB
:1027B0002C0F3D1FF2013183208376010894E11C28
:1027C000F11CE114F10409F094CF0BC08FE490E008
:1027D000A80EB91EF601B182A08221EB3FEFA20E36
:1027E000B31ED82C092D02C0DE2C0F2D8DE490E0F5
:1027F000A80EB91EF5018081918123EB3FEFA20E57
:10280000B31E009719F480E090E001C003966D2D8F
:10281000702F0E944D7D882301F1EAE7F1E0649179
:102820007F0109C08BE491E10E94E6110894E11C4C
:10283000F11CF70164916623A9F78BE491E16D2DFA
:10284000702F0E941B1226E732E0A20EB31EF50184
:1028500010821182128213822BC0E2E6F1E06491B1
:102860007F0109C08BE491E10E94E6110894E11C0C
:10287000F11CF70164916623A9F78BE491E16D2DBA
:10288000702F0E941B12E0E6F1E064917F0109C005
:102890008BE491E10E94E6110894E11CF11CF70120
:1028A00064916623A9F78BE491E16AE00E94E61146
:1028B000CE010E960E940E12AB960FB6F894DEBFB4
:1028C0000FBECDBFCF91DF911F910F91FF90EF9081
:1028D000DF90CF90BF90AF909F908F907F906F9040
:1028E0005F904F903F902F900895BF92CF92DF92CC
:1028F000EF92FF920F931F93CF93DF938C01EB0125
:102900008FE28993EE24E394FF2489E9C82E81E0C5
:10291000D82EC00ED11EBEE1BB2E14C0FB9CC00140
:10292000112480599F4F800F911FBE010E947F7517
:1029300002C02196E3948881882319F08CE88E15D3
:10294000C0F7F3942F2D30E0F60180819181281794
:10295000390720F3E7FC07C0C8018F539E4FBE0123
:102960000E947F7501C01882DF91CF911F910F9156
:10297000FF90EF90DF90CF90BF9008952F923F92FD
:102980004F925F926F927F928F929F92AF92BF927F
:10299000CF92DF92EF92FF920F931F93DF93CF932B
:1029A000CDB7DEB7AC970FB6F894DEBF0FBECDBF84
:1029B0005C014B014CA7DC0113968C91882309F430
:1029C000FEC2E4ECF1E0AE0EBF1ED5018C91ECE34B
:1029D000FEEFAE0EBF1E882309F404C1222309F0C6
:1029E000D1C02CED31E0A20EB31ED5018C91E4E2F2
:1029F000FEEFAE0EBF1E882381F1EFE1F1E064919E
:102A00007F0109C08BE491E10E94E6110894E11C6A
:102A1000F11CF70164916623A9F7E2E6F2E0649104
:102A20007F0109C08BE491E10E94E6110894E11C4A
:102A3000F11CF70164916623A9F78BE491E141E071
:102A400050E060E070E00E94AAA88BE491E16AE0A7
:102A50000E94E6110E946429B2C2EFEEF0E0649198
:102A60007F0109C08BE491E10E94E6110894E11C0A
:102A7000F11CF70164916623A9F7E9E4F2E064919F
:102A80007F0109C08BE491E10E94E6110894E11CEA
:102A9000F11CF70164916623A9F78BE491E1B4017D
:102AA0000E941B12EEE3F2E064917F0109C08BE407
:102AB00091E10E94E6110894E11CF11CF701649178
:102AC0006623A9F7850104521E4FD8016C915DE879
:102AD000F52E6F9DB00111246F517E4F6A0D7B1D45
:102AE000C5010E947514F80160816F9DB001112429
:102AF0006F517E4F6A0D7B1D8BE491E10E941B128A
:102B0000E8E3F2E064917F0109C08BE491E10E9467
:102B1000E6110894E11CF11CF70164916623A9F702
:102B200046E7E42E42E0F42EEA0CFB1CD7014D915F
:102B30005D916D917C918BE491E12AE000E00E942F
:102B40001DA88BE491E16AE00E94E611A5014452C0
:102B50005E4FFA012081E22FF0E0EE0FFF1FEE0F33
:102B6000FF1FEA0DFB1DE352FE4FD701CD90DD9014
:102B7000ED90FC90C082D182E282F3822F5FFA0155
:102B800020832AC0EFEEF0E064917F0109C08BE45E
:102B900091E10E94E6110894E11CF11CF701649197
:102BA0006623A9F7E7E2F2E064917F0109C08BE4B4
:102BB00091E10E94E6110894E11CF11CF701649177
:102BC0006623A9F78BE491E1B4010E941B128BE408
:102BD00091E16AE00E94E611C5018F539E4F0E9469
:102BE0006D7534C02CED31E0A20EB31ED5011C92E0
:102BF000E4E2FEEFAE0EBF1EEFEEF0E064917F0167
:102C000009C08BE491E10E94E6110894E11CF11CDB
:102C1000F70164916623A9F7E6E1F2E064917F0190
:102C200009C08BE491E10E94E6110894E11CF11CBB
:102C3000F70164916623A9F78BE491E1B4010E9446
:102C40001B128BE491E16AE00E94E611D501129615
:102C50001C92198A1C8A188A86E793E09F878E87C0
:102C60002DE4C22ED12CCA0CDB1CEFE2F0E0AE0E3C
:102C7000BF1ED601AD92BC92E1EDFFEFAE0EBF1EBE
:102C8000D4018C918F3209F081C0C4016FE270E0F1
:102C90000E94160F7C010894E11CF11C3E0108946F
:102CA000611C711C260191E1292E312C2C0E3D1E38
:102CB00068C0C7016FE270E00E94160F6C010097B8
:102CC00009F472C0E816F90608F06EC08C010E19FE
:102CD0001F09C301B701A8010E94360F060D171D79
:102CE000F80110828BE491E1B3010E941B128BE486
:102CF00091E16AE00E94E611D2016D917C9161152B
:102D0000710519F460E070E002C06D5F7F4FC10192
:102D1000A30121E00E947B7C882341F5E2E0F2E000
:102D200064917F0109C08BE491E10E94E61108944F
:102D3000E11CF11CF70164916623A9F78BE491E192
:102D4000BE016F5F7F4F0E941B12E0E0F2E06491D2
:102D50007F0109C08BE491E10E94E6110894E11C17
:102D6000F11CF70164916623A9F720C1EEE0F0E0C1
:102D7000EC0FFD1FD201ED93FC9376010894E11C4A
:102D8000F11CE114F10409F094CF0BC02FE430E002
:102D9000A20EB31ED601AD92BC92E1EBFFEFAE0ED8
:102DA000BF1E082DD92C02C00E2DDF2CF501E35BD0
:102DB000FF4F2CA5222309F4A6C060817181611503
:102DC000710519F460E070E002C06D5F7F4FC501CE
:102DD0008F539E4F402F5D2D21E00E947B7C8823E6
:102DE00009F46AC0A50142595D4F82ED91E0A80E39
:102DF000B91EF50180819181A281B3812EE23EEF5F
:102E0000A20EB31EFA0180839183A283B383E2EF03
:102E1000F1E064917F0109C08BE491E10E94E61129
:102E20000894E11CF11CF70164916623A9F78BE477
:102E300091E1602F7D2D0E941B12EAEEF1E064917A
:102E40007F0109C08BE491E10E94E6110894E11C26
:102E5000F11CF70164916623A9F72EE632E0A20E79
:102E6000B31ED5014D915D916D917C918BE491E103
:102E70002AE000E00E941DA88BE491E16AE00E9434
:102E8000E611E8E0F0E0AE0EBF1ED5011D921D92E6
:102E90001D921C921397ECEDF1E064917F0109C043
:102EA0008BE491E10E94E6110894E11CF11CF7010A
:102EB00064916623A9F77AC0E8ECF1E064917F01A0
:102EC00009C08BE491E10E94E6110894E11CF11C19
:102ED000F70164916623A9F78BE491E1602F7D2DC2
:102EE0000E941B12E6ECF1E064917F0109C08BE4C3
:102EF00091E10E94E6110894E11CF11CF701649134
:102F00006623A9F753C0608171816115710519F4B9
:102F100060E070E002C06D5F7F4FC5018F539E4F30
:102F2000402F5D2D26E50E947B7C882339F5E2EB5E
:102F3000F1E064917F0109C08BE491E10E94E61108
:102F40000894E11CF11CF70164916623A9F78BE456
:102F500091E1602F7D2D0E941B12E0EBF1E0649166
:102F60007F0109C08BE491E10E94E6110894E11C05
:102F7000F11CF70164916623A9F718C081E0D5011F
:102F80008C93EEE9F1E064917F0109C08BE491E15B
:102F90000E94E6110894E11CF11CF701649166237C
:102FA000A9F78BE491E1B4010E941B128BE491E13B
:102FB0006AE00E94E611CE010E960E940E12AC96B7
:102FC0000FB6F894DEBF0FBECDBFCF91DF911F913A
:102FD0000F91FF90EF90DF90CF90BF90AF909F90B8
:102FE0008F907F906F905F904F903F902F900895BB
:102FF000EF92FF920F931F93CF93DF93EC010E9408
:1030000022858E0104521E4FD8018C91E1ECEE2EE8
:10301000E1E0FE2EEC0EFD1E8823A1F1C7010E9407
:103020006D75F8016081615060838DE8689FB00123
:1030300011246F517E4F6C0F7D1FCE0141E021E0C6
:103040000E94BE14D801EC91F0E0EE0FFF1FEE0FCE
:10305000FF1FEC0FFD1FE352FE4F40815181628143
:103060007381CA58DD4F488359836A837B83C6576F
:10307000D240C7010E9453748B81882389F181E07B
:103080008A832EC00E943D83C7010E946D751A82FB
:1030900083EE90E00E9495568091B608882301F156
:1030A0001092B60880915806C82FD0E0CC0FDD1FD3
:1030B000C25DDF4E68817981882777FD8095982FE2
:1030C0000E9408AD2091D8023091D9024091DA02D5
:1030D0005091DB020E9474AE181614F41982188203
:1030E000DF91CF911F910F91FF90EF900895FC0118
:1030F00081E08183CF0140E021E00E94BE14089569
:10310000EF92FF920F931F93CF93DF938C01FC01FB
:10311000138285A9882321F0C801C2960E946D758B
:10312000FBE9EF2EF1E0FF2EE00EF11EC70160E09B
:1031300044E10E940D738823E9F4EFEEF0E064911E
:10314000EF0107C08BE491E10E94E6112196FE0198
:1031500064916623B9F7E3EDF2E06491EF0107C0F3
:103160008BE491E10E94E6112196FE0164916623B1
:10317000B9F771C0E801C056DE4FCE01B70141E09A
:103180000E94127E882321F5CE01B70140E00E9403
:10319000127E8823E9F4EFE1F1E06491EF0107C0CA
:1031A0008BE491E10E94E6112196FE016491662371
:1031B000B9F7E0ECF2E06491EF0107C08BE491E134
:1031C0000E94E6112196FE0164916623B9F743C07F
:1031D000C801C296BE010E946E788823E9F4EFE12F
:1031E000F1E06491EF0107C08BE491E10E94E611E8
:1031F0002196FE0164916623B9F7E0EBF2E0649159
:10320000EF0107C08BE491E10E94E6112196FE01D7
:1032100064916623B9F71FC081E0F8018383EFEE64
:10322000F0E06491EF0107C08BE491E10E94E611A8
:103230002196FE0164916623B9F7E5EAF2E0649114
:10324000EF0107C08BE491E10E94E6112196FE0197
:1032500064916623B9F78BE491E16AE00E94E6117C
:10326000D801AE5ABF4FF801F2968BE101900D9252
:103270008150E1F7F80181A90F5A1F4FF8018083AF
:1032800001551040C8018F96035B1F4FF8019183D1
:103290008083DF91CF911F910F91FF90EF90089560
:1032A0002F923F924F925F926F927F929F92AF9236
:1032B000BF92CF92DF92EF92FF920F931F93DF9313
:1032C000CF93CDB7DEB7CC55D0400FB6F894DEBF64
:1032D0000FBECDBF8C01662319F506581D4FD801CE
:1032E0008C910A571240882309F4E7C00FB6F8946E
:1032F0002091431130914411409145115091461154
:103300000FBE0E581D4FF80180819181A281B381BB
:103310000257124082179307A407B50708F4CDC0DF
:1033200006581D4FD8011C920A571240F80183819C
:10333000882349F4C8010E948018D80113968C9103
:10334000882309F4BAC000D000D000D0EDB7FEB792
:1033500031966E010894C11CD11CADB7BEB7129650
:10336000DC92CE92119786E191E093838283D8011B
:103370009D968D919C919E97958384830E94450F85
:103380007601EDB7FEB736960FB6F894FEBF0FBEC6
:10339000EDBF56010AC0D7018C91992787FD909502
:1033A0000E94A9B0F70181937F01F50101900020EF
:1033B000E9F73197EA19FB098E2D8C198E175CF30A
:1033C00092E3A92EB12CA00EB11EC50140E050E041
:1033D00060E070E00E94537499248DE3C82ED12CD4
:1033E000CC0EDD1E2E010894411C511CBFE16B2E3A
:1033F000712C6C0E7D1EAFE02A2EA1E03A2E43C048
:10340000D7018C9190E00E94A9B0F70181937F01D0
:10341000D6010D900020E9F71197AC19BD098E2D4A
:103420008C198A176CF327968FAD27978E3759F131
:10343000C601B20145E050E00E94280F009719F53F
:1034400000D000D000D0EDB7FEB73196ADB7BEB713
:1034500012967C926E921197338222825582448218
:103460000E94450FEDB7FEB736960FB6F894FEBF33
:103470000FBEEDBFC3010E940C578BE091E00E948C
:10348000955699249394C501B60140E050E00E94FE
:103490008A77181614F47601BBCF992041F48FEF88
:1034A0009FEFD8019E969C938E939D9706C0F8013E
:1034B00085A596A5019696A785A7C45ADF4F0FB696
:1034C000F894DEBF0FBECDBFCF91DF911F910F915A
:1034D000FF90EF90DF90CF90BF90AF909F907F9044
:1034E0006F905F904F903F902F9008952F923F9252
:1034F0004F925F926F927F928F929F92AF92BF9204
:10350000CF92DF92EF92FF920F931F93DF93CF93AF
:10351000CDB7DEB7CD58D0400FB6F894DEBF0FBEA2
:10352000CDBF7C012B015A0183E090E0A80EB91EAB
:10353000F7017196C957DF4FF983E883C758D04028
:10354000C7010496CC57DF4F99838883C458D04075
:10355000CA57DF4F1882C658D04054E6C52ED12C2A
:10356000CC0EDD1EF6013B96C757DF4FF983E8838B
:10357000C958D0404BE7642E42E0742E6E0C7F1C7D
:103580003DE7832E32E0932E8E0C9F1C26E4222EE4
:10359000312C2C0E3D1EC1010396C557DF4F998378
:1035A0008883CB58D040EFEEF0E09491C357DF4FC3
:1035B0009883CD58D04030C1F6018385482F50E024
:1035C000BA01687170706031710509F033C1F3019F
:1035D000208131812130310509F42CC1223031059F
:1035E00009F428C1F601DE0111969081903239F07C
:1035F0008E2F8C19883011F48EE28D939D93319625
:10360000C757DF4F88819981C958D040E817F9071B
:1036100061F71C921E86F2018081882331F4CE016D
:103620000E9660E071E00E940B0FCE010E96B20183
:103630000E940B0FCE010E96BE016F5F7F4F0E945E
:103640000B0FCE010E9660E071E00E940B0F1BA6DF
:103650001EA61AA686E793E099A788A7CE018B96A7
:10366000B501AE014F5F5F4F21E00E947B7C882354
:1036700071F5F30180819181892B49F5C357DF4FA3
:103680006881CD58D0400FEE10E008C08BE491E186
:103690000E94E6110F5F1F4FF80164916623B1F796
:1036A0008BE491E162E071E00E941B128BE491E1F6
:1036B0006AE00E94E6118BE491E1BE016F5F7F4FEB
:1036C0000E941B128BE491E16AE00E94E611C5574B
:1036D000DF4FA881B981CB58D040FE01BB968BE16A
:1036E00001900D928150E1F78AA5F101828386E76E
:1036F00093E091838083C701BE01625F7F4FA10188
:103700000E94761AC1010E940E12CE0188960E9474
:103710000E1282C0953E09F47FC09E3209F47CC02F
:103720009F3509F479C0F7019189992331F09E32D0
:1037300009F472C09F3509F46FC043FD6DC080E08D
:103740006031710509F481E0F70184A7882349F409
:10375000F6018085873409F05FC081858E3709F4D2
:103760005BC0CC57DF4FA881B981C458D040F60167
:103770008081803241F08E2F8C19883011F48EE2D6
:103780008D9380818D933196C757DF4F88819981C2
:10379000C958D040E817F90759F71C92F301808106
:1037A00091810097A9F48BE491E1B2010E941B1270
:1037B0008BE491E1CC57DF4F68817981C458D040C8
:1037C0000E941B128BE491E16AE00E94E61124C082
:1037D0008130910539F4F4018081918101969183C2
:1037E00080831AC00297C1F4CA57DF4FF881C658C8
:1037F000D0402F2F30E0F4018081918128173907C4
:10380000F1F0CA57DF4FF881C658D040FF5FCA5762
:10381000DF4FF883C658D040C501B601C957DF4F06
:1038200048815981C758D0400E948A7718160CF4F5
:10383000C3CE05C0F6019081992309F06BCFC35721
:10384000DF4F0FB6F894DEBF0FBECDBFCF91DF9133
:103850001F910F91FF90EF90DF90CF90BF90AF90AE
:103860009F908F907F906F905F904F903F902F90A0
:103870000895EF92FF920F931F93DF93CF93CDB7ED
:10388000DEB76E970FB6F894DEBF0FBECDBF7C01DA
:103890008BE792E0E80EF91EF7011182108285E8AD
:1038A0009DEFE80EF91E87010E5C1F4FC80140E036
:1038B00050E060E070E00E945374DE011496F8015D
:1038C0008BE101900D928150E1F7F70181A98B8383
:1038D00086E793E09A838983C70165E171E08E01F1
:1038E0000F5F1F4FA8010E94761AC8010E940E1296
:1038F0006E960FB6F894DEBF0FBECDBFCF91DF91AD
:103900001F910F91FF90EF900895CF93DF93EC01FB
:103910001AAA1DAA19AA86E793E098AB8FA7CE5AD8
:10392000DF4F188223961882C555D040FE01E15B17
:10393000FF4FCF5ADF4F1882C155D040918380830B
:10394000DE01A359BF4FFD0120E030E0482F138274
:103950001682128240839183225E3F4F7E9681E0E1
:103960002C323807A1F7C456DE4F89E188832396AD
:103970001882689618822A96188223961882C45C48
:10398000D140FE01E254FE4FC054DE4F1882408306
:103990009183C255DF4F188219821A821B822896A2
:1039A000188219821A821B82C657D2401A821B8241
:1039B00018821982C756DE4F19821882CD5BDF4FFD
:1039C0001882FD01C90111920197E9F7C256DF4F34
:1039D00081E08883CA57D2401EA61DA60FB6F89470
:1039E0008091431190914411A0914511B0914611DD
:1039F0000FBE88579C4EAF4FBF4FCE58DD4F8883C8
:103A00009983AA83BB83DF91CF9108950F931F936E
:103A1000DF93CF93CDB7DEB766970FB6F894DEBFCE
:103A20000FBECDBF8091160190911701A091180192
:103A3000B09119018F87988BA98BBA8BFE013F96A5
:103A400044E650E08081F999FECF1FBA52BD41BDD6
:103A500080BD0FB6F894FA9AF99A0FBE4F5F5F4F88
:103A60004836510511F03196EDCFEAE5F8E0808156
:103A7000F999FECF1FBA52BD41BD80BD0FB6F89473
:103A8000FA9AF99A0FBE4F5F5F4F4837510511F010
:103A90003196EDCFEAE4F8E08081F999FECF1FBAC4
:103AA00052BD41BD80BD0FB6F894FA9AF99A0FBE87
:103AB0004F5F5F4F4838510511F03196EDCFEAE680
:103AC000F8E08081F999FECF1FBA52BD41BD80BD9B
:103AD0000FB6F894FA9AF99A0FBE4F5F5F4F4839C4
:103AE000510511F03196EDCFEEE7F8E08081F999BC
:103AF000FECF1FBA52BD41BD80BD0FB6F894FA9AF1
:103B0000F99A0FBE4F5F5F4F4C39510511F0319656
:103B1000EDCFE2E8F8E08081F999FECF1FBA52BDFF
:103B200041BD80BD0FB6F894FA9AF99A0FBE4F5F67
:103B30005F4F403A510511F03196EDCFEAE7F8E0DA
:103B40008081F999FECF1FBA52BD41BD80BD0FB62D
:103B5000F894FA9AF99A0FBE4F5F5F4F443A5105B5
:103B600011F03196EDCFE2E9F8E08081F999FECFCE
:103B70001FBA52BD41BD80BD0FB6F894FA9AF99AAA
:103B80000FBE4F5F5F4F483A510511F03196EDCFB0
:103B9000E6E4F8E08081F999FECF1FBA52BD41BD3D
:103BA00080BD0FB6F894FA9AF99A0FBE4F5F5F4F37
:103BB0004C3A510511F03196EDCFE6E8F8E08081FE
:103BC000F999FECF1FBA52BD41BD80BD0FB6F89422
:103BD000FA9AF99A0FBE4F5F5F4F403B510511F0C3
:103BE0003196EDCFEAE8F8E08081F999FECF1FBA6F
:103BF00052BD41BD80BD0FB6F894FA9AF99A0FBE36
:103C00004F5F5F4F443B510511F03196EDCFEEE829
:103C1000F8E08081F999FECF1FBA52BD41BD80BD49
:103C20000FB6F894FA9AF99A0FBE4F5F5F4F483B70
:103C3000510511F03196EDCFEDE3F6E08081F99971
:103C4000FECF1FBA52BD41BD80BD0FB6F894FA9A9F
:103C5000F99A0FBE4F5F5F4F443C510511F031960A
:103C6000EDCF84EB90E09A83898386E490E09C8397
:103C70008B832FEF30E03E832D8380EF90E0988799
:103C80008F8384E690E09A8789873C872B87FE01A3
:103C900031968081F999FECF1FBA52BD41BD80BDDA
:103CA0000FB6F894FA9AF99A0FBE4F5F5F4F463CF1
:103CB000510571F7FE0133968081F999FECF1FBA45
:103CC00052BD41BD80BD0FB6F894FA9AF99A0FBE65
:103CD0004F5F5F4F483C510511F03196EDCFFE012B
:103CE00035968081F999FECF1FBA52BD41BD80BD86
:103CF0000FB6F894FA9AF99A0FBE4F5F5F4F4A3C9D
:103D0000510511F03196EDCFFE0137968081F9997A
:103D1000FECF1FBA52BD41BD80BD0FB6F894FA9ACE
:103D2000F99A0FBE4F5F5F4F4C3C510511F0319631
:103D3000EDCFFE0139968081F999FECF1FBA52BDB1
:103D400041BD80BD0FB6F894FA9AF99A0FBE4F5F45
:103D50005F4F4E3C510511F03196EDCFFE013B9681
:103D60008081F999FECF1FBA52BD41BD80BD0FB60B
:103D7000F894FA9AF99A0FBE4F5F5F4F403D510594
:103D800011F03196EDCFEBE9F2E08081F999FECFA9
:103D90001FBA52BD41BD80BD0FB6F894FA9AF99A88
:103DA0000FBE4F5F5F4F443D510511F03196EDCF8F
:103DB000EFE9F2E08081F999FECF1FBA52BD41BD13
:103DC00080BD0FB6F894FA9AF99A0FBE4F5F5F4F15
:103DD000483D510511F03196EDCFE3EAF2E08081E4
:103DE000F999FECF1FBA52BD41BD80BD0FB6F89400
:103DF000FA9AF99A0FBE4F5F5F4F4C3D510511F093
:103E00003196EDCFE9EEF2E08081F999FECF1FBA4D
:103E100052BD41BD80BD0FB6F894FA9AF99A0FBE13
:103E20004F5F5F4F403E510511F03196EDCFEDEE03
:103E3000F2E08081F999FECF1FBA52BD41BD80BD2D
:103E40000FB6F894FA9AF99A0FBE4F5F5F4F443E4F
:103E5000510511F03196EDCFE1EFF2E08081F99953
:103E6000FECF1FBA52BD41BD80BD0FB6F894FA9A7D
:103E7000F99A0FBE4F5F5F4F483E510511F03196E2
:103E8000EDCF80E290E09E878D87FE013D96808198
:103E9000F999FECF1FBA52BD41BD80BD0FB6F8944F
:103EA000FA9AF99A0FBE4F5F5F4F4A3E510511F0E3
:103EB0003196EDCFEFE6F6E08081F999FECF1FBA9B
:103EC00052BD41BD80BD0FB6F894FA9AF99A0FBE63
:103ED0004F5F5F4F4E3E510511F03196EDCFEFE849
:103EE000F2E08081F999FECF1FBA52BD41BD80BD7D
:103EF0000FB6F894FA9AF99A0FBE4F5F5F4F423FA0
:103F0000510511F03196EDCFE3E7F6E08081F999A4
:103F1000FECF1FBA52BD41BD80BD0FB6F894FA9ACC
:103F2000F99A0FBE4F5F5F4F463F510511F0319632
:103F3000EDCFE3E9F2E08081F999FECF1FBA52BDDF
:103F400041BD80BD0FB6F894FA9AF99A0FBE4F5F43
:103F50005F4F4A3F510511F03196EDCFE7E7F6E0AC
:103F60008081F999FECF1FBA52BD41BD80BD0FB609
:103F7000F894FA9AF99A0FBE4F5F5F4F4E3F510582
:103F800011F03196EDCFE7E9F2E08081F999FECFAB
:103F90001FBA52BD41BD80BD0FB6F894FA9AF99A86
:103FA0000FBE81E04130580721F04F5F5F4F3196DF
:103FB000ECCF80911A0190911B01A0911C01B0914E
:103FC0001D018B8B9C8BAD8BBE8BFE01739684E6A3
:103FD00090E02081F999FECF1FBA92BD81BD20BD2E
:103FE0000FB6F894FA9AF99A0FBE8736910519F030
:103FF00001963196EECFE0EEF2E064918F0108C0B9
:104000008BE491E10E94E6110F5F1F4FF80164916C
:104010006623B1F7E4E5F5E064918F0108C08BE415
:1040200091E10E94E6110F5F1F4FF8016491662332
:10403000B1F78BE491E16AE00E94E61166960FB653
:10404000F894DEBF0FBECDBFCF91DF911F910F91CE
:104050000895EF92FF920F931F93DF93CF93CDB705
:10406000DEB7E0970FB6F894DEBF0FBECDBFDE011E
:104070001196E8E2F3E080E101900D928150E1F7C2
:10408000DE015196E8E1F3E080E101900D9281506C
:10409000E1F7DE019196E8E0F3E080E101900D9216
:1040A0008150E1F789819A81AB81BC8180935A0864
:1040B00090935B08A0935C08B0935D0889899A8906
:1040C000AB89BC8980934A0890934B08A0934C0815
:1040D000B0934D0889A19AA1ABA1BCA180936A08B5
:1040E00090936B08A0936C08B0936D088D819E81AE
:1040F000AF81B88580935E0890935F08A0936008B5
:10410000B09361088D899E89AF89B88D80934E08E0
:1041100090934F08A0935008B09351088DA19EA191
:10412000AFA1B8A580936E0890936F08A093700814
:10413000B093710889859A85AB85BC8580936208A8
:1041400090936308A0936408B0936508898D9A8D55
:10415000AB8DBC8D8093520890935308A093540864
:10416000B093550889A59AA5ABA5BCA58093720804
:1041700090937308A0937408B09375088D859E85FD
:10418000AF85B8898093660890936708A093680804
:10419000B09369088D8D9E8DAF8DB8A18093560820
:1041A00090935708A0935808B09359088DA59EA5E1
:1041B000AFA5B8A98093760890937708A093780864
:1041C000B09379080E94365E80E090E8ABE3B5E4F6
:1041D00080937E0890937F08A0938008B093810815
:1041E0008093820890938308A0938408B0938508F5
:1041F0000F2EF0E0EF2EF0E0FF2EF0E00F2FF0E0BA
:104200001F2FF02DE0927A08F0927B0800937C0833
:1042100010937D0880E29EE4A0E0B0E08093460821
:1042200090934708A0934808B0934908E0929208F9
:10423000F0929308009394081093950820E030E0E2
:1042400040EA51E420938608309387084093880819
:10425000509389088DEC9CECACECBEE380938A080B
:1042600090938B08A0938C08B0938D0880E090E029
:10427000A0EAB0E480938E0890938F08A0939008F2
:10428000B0939108E0924506F092460600934706E7
:1042900010934806E0924106F092420600934306CE
:1042A00010934406E0923D06F0923E0600933F06CE
:1042B0001093400620939B0230939C0240939D02F2
:1042C00050939E02E0929F02F092A0020093A102FE
:1042D0001093A202E092A302F092A4020093A5021E
:1042E0001093A6028AE999E9A1EBB1E48093E9026F
:1042F0009093EA02A093EB02B093EC0261E77DE3B6
:104300008AE89FE30E94938D6093ED027093EE0222
:104310008093EF029093F00260E070E084EE92E40C
:104320000E94A18D6093F1027093F2028093F302D8
:104330009093F4020E94A38C80E090E0A0E8BFE399
:104340008093F5029093F602A093F702B093F802DF
:10435000E0926F06F0927006009371061093720659
:10436000E0927306F0927406009375061093760639
:10437000E0927706F09278060093790610937A0619
:1043800080E090E0A8E1B3E480938F0290939002E4
:10439000A0939102B093920280939302909394021F
:1043A000A0939502B09396028093970290939802FF
:1043B000A0939902B0939A02E0EEF2E064918F012B
:1043C00008C08BE491E10E94E6110F5F1F4FF801D6
:1043D00064916623B1F7E6EEF2E064918F0108C0C4
:1043E0008BE491E10E94E6110F5F1F4FF801649189
:1043F0006623B1F78BE491E16AE00E94E611E09652
:104400000FB6F894DEBF0FBECDBFCF91DF911F91E5
:104410000F91FF90EF9008950F931F93CF93DF9329
:1044200000EE12E0F8016491E80107C08BE491E12D
:104430000E94E6112196FE0164916623B9F7E4E437
:10444000F5E06491EF0107C08BE491E10E94E61171
:104450002196FE0164916623B9F78BE491E16AE04D
:104460000E94E611F8016491C0EED2E007C08BE42F
:1044700091E10E94E6112196FE0164916623B9F74D
:1044800040915A0850915B0860915C0870915D08FA
:104490008CE395E00E94FC3040915E0850915F08EB
:1044A000609160087091610889E395E00E94FC309A
:1044B00040916208509163086091640870916508AA
:1044C00086E395E00E94FC304091660850916708B1
:1044D000609168087091690883E395E00E94FC3060
:1044E0008BE491E16EE171E00E941B128BE491E19B
:1044F0006AE00E94E611F8016491C0EED2E007C0C4
:104500008BE491E10E94E6112196FE0164916623FD
:10451000B9F7E9E1F5E06491EF0107C08BE491E1BF
:104520000E94E6112196FE0164916623B9F78BE49F
:1045300091E16AE00E94E611F8016491C0EED2E0D8
:1045400007C08BE491E10E94E6112196FE0164917F
:104550006623B9F740914A0850914B0860914C0886
:1045600070914D0880E195E00E94FC3040914E082A
:1045700050914F0860915008709151088DE095E07E
:104580000E94FC30409152085091530860915408A9
:10459000709155088AE095E00E94FC3040915608E1
:1045A00050915708609158087091590887E095E03C
:1045B0000E94FC308BE491E16EE171E00E941B12DD
:1045C0008BE491E16AE00E94E611F8016491C0EE8B
:1045D000D2E007C08BE491E10E94E6112196FE0132
:1045E00064916623B9F7E9EEF4E06491EF0107C046
:1045F0008BE491E10E94E6112196FE01649166230D
:10460000B9F78BE491E16AE00E94E611F801649148
:10461000C0EED2E007C08BE491E10E94E611219642
:10462000FE0164916623B9F740916A0850916B08C6
:1046300060916C0870916D0880EE94E00E940029F2
:1046400040916E0850916F086091700870917108E8
:104650008DED94E00E9400294091720850917308FA
:1046600060917408709175088AED94E00E940029A9
:104670004091760850917708609178087091790898
:1046800087ED94E00E9400298BE491E16EE171E0F6
:104690000E941B128BE491E16AE00E94E611F8018E
:1046A0006491C0EED2E007C08BE491E10E94E61174
:1046B0002196FE0164916623B9F7E2EAF4E0649181
:1046C000EF0107C08BE491E10E94E6112196FE0103
:1046D00064916623B9F78BE491E16AE00E94E611E8
:1046E000F8016491C0EED2E007C08BE491E10E9432
:1046F000E6112196FE0164916623B9F740917E0888
:1047000050917F08609180087091810889E994E058
:104710000E94FC3040918208509183086091840887
:104720007091850886E994E00E94FC308BE491E169
:104730006EE171E00E941B128BE491E16AE00E943D
:10474000E611F8016491C0EED2E007C08BE491E17C
:104750000E94E6112196FE0164916623B9F7E3EE0B
:10476000F3E06491EF0107C08BE491E10E94E61150
:104770002196FE0164916623B9F78BE491E16AE02A
:104780000E94E611F8016491C0EED2E007C08BE40C
:1047900091E10E94E6112196FE0164916623B9F72A
:1047A00040917A0850917B0860917C0870917D0857
:1047B0008AED93E00E94FC3040919208509193085A
:1047C000609194087091950887ED93E00E94FC3009
:1047D00040914608509147086091480870914908F7
:1047E00084ED93E00E94002940918608509187084B
:1047F000609188087091890881ED93E00E94FC30F7
:1048000040918A0850918B0860918C0870918D08B6
:104810008EEC93E00E94FC3040918E0850918F08FE
:1048200060919008709191088BEC93E00E94FC30AD
:104830008BE491E16EE171E00E941B128BE491E147
:104840006AE00E94E611F8016491C0EED2E007C070
:104850008BE491E10E94E6112196FE0164916623AA
:10486000B9F7E9EBF3E06491EF0107C08BE491E164
:104870000E94E6112196FE0164916623B9F78BE44C
:1048800091E16AE00E94E611F8016491C0EED2E085
:1048900007C08BE491E10E94E6112196FE0164912C
:1048A0006623B9F740913D0650913E0660913F0660
:1048B0007091400680EB93E00E94FC3040914106ED
:1048C0005091420660914306709144068DEA93E050
:1048D0000E94FC3040914506509146066091470683
:1048E000709148068AEA93E00E94FC308BE491E1E3
:1048F0006EE171E00E941B128BE491E16AE00E947C
:10490000E611F8016491C0EED2E007C08BE491E1BA
:104910000E94E6112196FE0164916623B9F7ECE945
:10492000F3E06491EF0107C08BE491E10E94E6118E
:104930002196FE0164916623B9F78BE491E16AE068
:104940000E94E611F8016491C0EED2E007C08BE44A
:1049500091E10E94E6112196FE0164916623B9F768
:104960004091E9025091EA026091EB027091EC02F1
:1049700082E993E00E94FC306091ED027091EE02BA
:104980008091EF029091F0020E949A8DAB01BC01E0
:104990008FE893E00E94FC306091F1027091F20286
:1049A0008091F3029091F4020E94A88DAB01BC01AA
:1049B0008CE893E00E94FC308BE491E16EE171E0C1
:1049C0000E941B128BE491E16AE00E94E611F8015B
:1049D0006491C0EED2E007C08BE491E10E94E61141
:1049E0002196FE0164916623B9F7E9E7F3E064914B
:1049F000EF0107C08BE491E10E94E6112196FE01D0
:104A000064916623B9F78BE491E16AE00E94E611B4
:104A1000F8016491C0EED2E007C08BE491E10E94FE
:104A2000E6112196FE0164916623B9F740916F0665
:104A300050917006609171067091720680E793E064
:104A40000E94FC3040917306509174066091750687
:104A5000709176068DE693E00E94FC3040917706D7
:104A6000509178066091790670917A068AE693E013
:104A70000E94FC308BE491E16EE171E00E941B1218
:104A80008BE491E16AE00E94E611F8016491C0EEC6
:104A9000D2E007C08BE491E10E94E6112196FE016D
:104AA00064916623B9F7E7E5F3E06491EF0107C08D
:104AB0008BE491E10E94E6112196FE016491662348
:104AC000B9F78BE491E16AE00E94E611F801649184
:104AD000C0EED2E007C08BE491E10E94E61121967E
:104AE000FE0164916623B9F740918F0250919002C4
:104AF00060919102709192028EE493E00E94FC30EA
:104B000040919302509194026091950270919602A7
:104B10008BE493E00E94FC30409197025091980200
:104B20006091990270919A0288E493E00E94FC30AF
:104B30008BE491E16EE171E00E941B128BE491E144
:104B40006AE00E94E611F8016491C0EED2E007C06D
:104B50008BE491E10E94E6112196FE0164916623A7
:104B6000B9F7E1E3F3E06491EF0107C08BE491E171
:104B70000E94E6112196FE0164916623B9F78BE449
:104B800091E16AE00E94E611F8016491C0EED2E082
:104B900007C08BE491E10E94E6112196FE01649129
:104BA0006623B9F740919B0250919C0260919D024F
:104BB00070919E0288E293E00E94FC3040919F0237
:104BC0005091A0026091A1027091A20285E293E04F
:104BD0000E94FC304091A3025091A4026091A50272
:104BE0007091A60282E293E00E94FC308BE491E196
:104BF0006EE171E00E941B128BE491E16AE00E9479
:104C0000E611DF91CF911F910F9108950F931F939C
:104C1000DF93CF93CDB7DEB766970FB6F894DEBFBC
:104C20000FBECDBF80911A0190911B01A0911C0174
:104C3000B0911D018B8B9C8BAD8BBE8BFE013F9683
:104C400004E610E0F999FECF12BD01BDF89A80B5D7
:104C500080830F5F1F4F0836110511F03196F2CF98
:104C6000CE014396BE01615F7F4F43E050E00E945A
:104C7000280F009709F017C2EAE5F8E0F999FECF8E
:104C800012BD01BDF89A80B580830F5F1F4F0837B2
:104C9000110511F03196F2CFEAE4F8E0F999FECF70
:104CA00012BD01BDF89A80B580830F5F1F4F083891
:104CB000110511F03196F2CFEAE6F8E0F999FECF4E
:104CC00012BD01BDF89A80B580830F5F1F4F083970
:104CD000110511F03196F2CF0E94365EEEE7F8E052
:104CE000F999FECF12BD01BDF89A80B580830F5FA0
:104CF0001F4F0C39110511F03196F2CFE2E8F8E0C0
:104D0000F999FECF12BD01BDF89A80B580830F5F7F
:104D10001F4F003A110511F03196F2CFEAE7F8E0A3
:104D2000F999FECF12BD01BDF89A80B580830F5F5F
:104D30001F4F043A110511F03196F2CFE2E9F8E085
:104D4000F999FECF12BD01BDF89A80B580830F5F3F
:104D50001F4F083A110511F03196F2CFE6E4F8E062
:104D6000F999FECF12BD01BDF89A80B580830F5F1F
:104D70001F4F0C3A110511F03196F2CFE6E8F8E03A
:104D8000F999FECF12BD01BDF89A80B580830F5FFF
:104D90001F4F003B110511F03196F2CFEAE8F8E021
:104DA000F999FECF12BD01BDF89A80B580830F5FDF
:104DB0001F4F043B110511F03196F2CFEEE8F8E0F9
:104DC000F999FECF12BD01BDF89A80B580830F5FBF
:104DD0001F4F083B110511F03196F2CFEDE3F6E0DD
:104DE000F999FECF12BD01BDF89A80B580830F5F9F
:104DF0001F4F043C110511F03196F2CFFE013196A0
:104E0000F999FECF12BD01BDF89A80B580830F5F7E
:104E10001F4F063C110599F7FE013396F999FECF15
:104E200012BD01BDF89A80B580830F5F1F4F083C0B
:104E3000110511F03196F2CFFE013596F999FECFAA
:104E400012BD01BDF89A80B580830F5F1F4F0A3CE9
:104E5000110511F03196F2CFFE013796F999FECF88
:104E600012BD01BDF89A80B580830F5F1F4F0C3CC7
:104E7000110511F03196F2CFFE013996F999FECF66
:104E800012BD01BDF89A80B580830F5F1F4F0E3CA5
:104E9000110511F03196F2CFFE013B96F999FECF44
:104EA00012BD01BDF89A80B580830F5F1F4F003D92
:104EB000110511F03196F2CFEBE9F2E0F999FECF4E
:104EC00012BD01BDF89A80B580830F5F1F4F043D6E
:104ED000110511F03196F2CFEFE9F2E0F999FECF2A
:104EE00012BD01BDF89A80B580830F5F1F4F083D4A
:104EF000110511F03196F2CFE3EAF2E0F999FECF15
:104F000012BD01BDF89A80B580830F5F1F4F0C3D25
:104F1000110511F03196F2CFE9EEF2E0F999FECFEA
:104F200012BD01BDF89A80B580830F5F1F4F003E10
:104F3000110511F03196F2CFEDEEF2E0F999FECFC6
:104F400012BD01BDF89A80B580830F5F1F4F043EEC
:104F5000110511F03196F2CFE1EFF2E0F999FECFB1
:104F600012BD01BDF89A80B580830F5F1F4F083EC8
:104F7000110511F03196F2CFFE013D96F999FECF61
:104F800012BD01BDF89A80B580830F5F1F4F0A3EA6
:104F9000110511F03196F2CFEFE6F6E0F999FECF68
:104FA00012BD01BDF89A80B580830F5F1F4F0E3E82
:104FB000110511F03196F2CFEFE8F2E0F999FECF4A
:104FC00012BD01BDF89A80B580830F5F1F4F023F6D
:104FD000110511F03196F2CFE3E7F6E0F999FECF33
:104FE00012BD01BDF89A80B580830F5F1F4F063F49
:104FF000110511F03196F2CFE3E9F2E0F999FECF15
:1050000012BD01BDF89A80B580830F5F1F4F0A3F24
:10501000110511F03196F2CFE7E7F6E0F999FECFEE
:1050200012BD01BDF89A80B580830F5F1F4F0E3F00
:10503000110511F03196F2CFE7E9F2E0F999FECFD0
:1050400012BD01BDF89A80B5808381E00130180758
:1050500021F00F5F1F4F3196F1CF0E94A38CE0EE3D
:10506000F2E064918F0108C08BE491E10E94E611A7
:105070000F5F1F4FF80164916623B1F7E8E0F3E09A
:1050800064918F0108C08BE491E10E94E6110F5FEB
:105090001F4FF80164916623B1F78BE491E16AE058
:1050A0000E94E61104C00E9429200E94061D0E9451
:1050B0000C2266960FB6F894DEBF0FBECDBFCF911F
:1050C000DF911F910F910895CF93DF930FB6F8945E
:1050D0008091431190914411A0914511B0914611D6
:1050E0000FBE8093840690938506A0938606B093A6
:1050F0008706E091AD06F091AE06E155F94F80814B
:10510000882399F4E6E0F6E06491EF0107C08BE4B0
:1051100091E10E94E6112196FE0164916623B9F7A0
:105120008BE491E16AE00E94E611DF91CF9108954E
:10513000089580916D0608950F931F93CF93DF9389
:105140008130910549F46F5F7F4F09F046C086EAD0
:1051500093E00E94851C41C0892B09F03EC06F5F1F
:105160007F4FD9F586E793E09093650580936405BA
:1051700080916A05882321F087E695E00E946D758D
:10518000C1E2D5E006E713E005C06E9783E0C53FB6
:10519000D80751F0198308838E818823B1F3CE019B
:1051A00003960E946D75F1CF86E793E0998388831B
:1051B0008E81882321F0CE0103960E946D7586E7CB
:1051C00093E09093D6038093D5038091DB038823EB
:1051D00021F088ED93E00E946D75DF91CF911F91D2
:1051E0000F91089580E090E06FEF7FEF0E949C2880
:1051F000089581E090E06FEF7FEF0E949C28089572
:10520000EF92FF920F931F93CF93DF93EC017A01FC
:105210008B01FC01649107C08BE491E10E94E611CF
:105220002196FE0164916623B9F78BE491E1B80100
:10523000A7012AE000E00E941DA8DF91CF911F91F5
:105240000F91FF90EF900895CF93DF930E94768D9A
:1052500080916D06882309F034C081E080936D064B
:1052600080917C0690917D06A0917E06B0917F068C
:105270008093800690938106A0938206B093830664
:10528000EAE6F5E06491EF0107C08BE491E10E944A
:10529000E6112196FE0164916623B9F7E1E7F5E096
:1052A0006491EF0107C08BE491E10E94E611219621
:1052B000FE0164916623B9F78BE491E16AE00E94F4
:1052C000E611DF91CF910895CF93DF93F8940E9478
:1052D000768D779A10925506769A10925606479ACE
:1052E00010925706439AEAE6F5E06491EF0107C091
:1052F0008BE491E10E94E6112196FE016491662300
:10530000B9F7E7EEF5E06491EF0107C08BE491E1B6
:105310000E94E6112196FE0164916623B9F78BE4A1
:1053200091E16AE00E94E611FFCFEF92FF920F93A6
:105330001F930FB6F8948091431190914411A0915E
:105340004511B09146110FBEE0908806F090890695
:1053500000918A0610918B06209184063091850673
:105360004091860650918706821B930BA40BB50BC8
:10537000E816F9060A071B0738F4E114F1040105E1
:10538000110511F00E946429E090A702F090A80294
:105390000091A9021091AA02E114F104010511057E
:1053A00061F10FB6F8948091431190914411A0914E
:1053B0004511B09146110FBE2091840630918506AB
:1053C0004091860650918706821B930BA40BB50B68
:1053D000E816F9060A071B0780F49091870D809163
:1053E000880D981751F4779A10925506769A109274
:1053F0005606479A10925706439A0E94FD5D1F91E8
:105400000F91FF90EF9008956F927F928F929F92ED
:10541000AF92BF92CF92DF92EF92FF920F931F93C2
:10542000F82E60918C0670918D0680918E06909179
:105430008F062091900630919106409192065091EE
:1054400093060E9481AE3B014C0100D000D000D0F9
:105450000DB71EB70F5F1F4F60917E0270917F02E4
:10546000882777FD8095982F0E9408AD2091AB0288
:105470003091AC024091AD025091AE020E9446AF15
:1054800020E030E040E752E40E946DAC20E030E0E4
:1054900048EC52E40E946DAC5B016C01F801608243
:1054A000718282829382F4828091580685838DE294
:1054B00096E068E976E04CE856E020E001E032E072
:1054C000E32E0E9448598091980690919906A091E8
:1054D0009A06B0919B0680932D0690932E06A0937A
:1054E0002F06B093300680919C0690919D06A09166
:1054F0009E06B0919F068093310690933206A0934A
:105500003306B09334068091A0069091A106A09135
:10551000A206B091A3068093350690933606A09319
:105520003706B09338068091A4069091A506A09105
:10553000A606B091A7068093390690933A06A093E9
:105540003B06B0933C060FB6F894809143119091BE
:105550004411A0914511B09146110FBE809384066D
:1055600090938506A0938606B09387068DB79EB765
:1055700006960FB6F8949EBF0FBE8DBF1F910F9178
:10558000FF90EF90DF90CF90BF90AF909F908F9063
:105590007F906F9008954F925F926F927F928F925B
:1055A0009F92AF92BF92CF92DF92EF92FF920F93B2
:1055B0001F93DF93CF9300D000D0CDB7DEB70FB6E7
:1055C000F8948091431190914411A0914511B091AC
:1055D00046110FBE8093840690938506A09386069D
:1055E000B09387068091980690919906A0919A06AB
:1055F000B0919B0689839A83AB83BC8360912D060F
:1056000070912E0680912F069091300629813A8163
:105610004B815C810E9466AC882309F09DC040905C
:105620009C0650909D0660909E0670909F0660912B
:105630003106709132068091330690913406A301B1
:1056400092010E9466AC882309F086C000D0CDB6D6
:10565000DEB60894C11CD11CE090A006F090A10613
:105660000091A2061091A3066091AB027091AC026A
:105670008091AD029091AE0220E030E040E752E42C
:105680000E946DAC4B015C0188E596E0D6018D93DC
:105690009C9369817A818B819C81A3019201E4EAC8
:1056A000CE2EE6E0DE2E0E9435640F900F908091A2
:1056B000980690919906A0919A06B0919B068093C6
:1056C0002D0690932E06A0932F06B093300680915E
:1056D0009C0690919D06A0919E06B0919F06809396
:1056E000310690933206A0933306B093340680912E
:1056F000A0069091A106A091A206B091A306809366
:10570000350690933606A0933706B09338068091FD
:10571000A4069091A506A091A606B091A706809335
:10572000390690933A06A0933B06B0933C060F903F
:105730000F900F900F90CF91DF911F910F91FF90DD
:10574000EF90DF90CF90BF90AF909F908F907F9021
:105750006F905F904F90089500D0CDB6DEB608945C
:10576000C11CD11C40909C0650909D0660909E06E6
:1057700070909F06E090A006F090A1060091A2060E
:105780001091A30660917E0270917F02882777FDB9
:105790008095982F0E9408AD2091AB023091AC0209
:1057A0004091AD025091AE020E9446AF20E030E041
:1057B00040E752E40E946DAC20E030E048EC52E457
:1057C0000E946DAC4B015C0188E596E0F601918387
:1057D00080835FCFCF93DF938BE491E10E94E3A9B5
:1057E000E9E0F6E06491EF0107C08BE491E10E94EB
:1057F000E6112196FE0164916623B9F740917C067B
:1058000050917D0660917E0670917F064F5F5F4FDD
:105810006F4F7F4F8BE491E10E94AAA88BE491E146
:105820006AE00E94E6110E946428DF91CF910895FA
:105830004F925F926F927F928F929F92AF92BF92A0
:10584000CF92DF92EF92FF920F931F934090AB02A3
:105850005090AC026090AD027090AE020F2EF0E05E
:10586000AF2EF0E4BF2EFCE9CF2EF5E4DF2EF02DB5
:10587000A092AB02B092AC02C092AD02D092AE0246
:1058800060932D0670932E0680932F06909330061A
:1058900020933106309332064093330650933406FA
:1058A000E0923506F09236060093370610933806DC
:1058B00000D0E8E5F6E0ADB7BEB71296FC93EE93E4
:1058C0001197F9E3CF2EF6E0DF2E0F2EFBEA8F2E95
:1058D000FAEA9F2EF6EAAF2EF2E4BF2EF02D0E94D8
:1058E00035640F900F900E9422854092AB02509237
:1058F000AC026092AD027092AE021F910F91FF90C8
:10590000EF90DF90CF90BF90AF909F908F907F905F
:105910006F905F904F9008952F923F924F925F92B9
:105920006F927F928F929F92AF92BF92CF92DF92AF
:10593000EF92FF920F931F93DF93CF93CDB7DEB714
:10594000AC970FB6F894DEBF0FBECDBF9A8B898B94
:105950008330910508F084C2FC01E254F84FB49002
:105960001C01220C331C220C331C9101235D394F86
:105970003C8B2B8B80E090E0A0E0B0E0F9018083CD
:105980009183A283B38360912D0670912E0680913E
:105990002F069091300620913106309132064091C9
:1059A000330650913406E0903506F09036060091AB
:1059B000370610913806B9E3CB2EB6E0DB2E0E94F5
:1059C0007F5E9E012F5F3F4F3CA72BA7D901ECE0E4
:1059D0001D92EA95E9F760918F0270919002809193
:1059E00091029091920220916F0630917006409141
:1059F0007106509172060E948CAB69837A838B8307
:105A00009C83609193027091940280919502909191
:105A1000960220917306309174064091750650915C
:105A200076060E948CAB6D837E838F83988760910E
:105A30009702709198028091990290919A02209118
:105A40007706309178064091790650917A060E9447
:105A50008CAB69877A878B879C876B2D772767FD4F
:105A60007095882777FD8095982F0E9408AD6D87E7
:105A70007E878F87988B91012856394F3E8B2D8BCF
:105A800041E050E04C0F5D1F420D531D588F4F8B6E
:105A9000DA016D917D918D919C9120E030E040EC98
:105AA0005FE30E9446AF2D853E854F8558890E9451
:105AB00046AFED89FE896083718382839383910170
:105AC00022593D4F3A8F298FD9016D917D918D914A
:105AD0009C916093AB027093AC028093AD02909363
